:020000040800F2
:10000000E807002049010008F7010008EF01000897
:10001000F3010008E7010008550300080000000094
:10002000000000000000000000000000FF010008C8
:10003000EB01000800000000FB010008610100085E
:100040006301000863010008630100086301000800
:1000500063010008630100086301000863010008F0
:1000600063010008630100086301000863010008E0
:1000700063010008630100086301000863010008D0
:1000800063010008630100086301000863010008C0
:100090004D030008630100086301000863010008C4
:1000A00063010008630100086301000863010008A0
:1000B0006301000863010008630100086301000890
:1000C0006301000863010008630100086301000880
:1000D0006301000863010008630100086301000870
:1000E0006301000863010008630100086301000860
:1000F0006301000863010008630100086301000850
:10010000630100086301000863010008630100083F
:10011000630100086301000863010008630100082F
:10012000630100086301000863010008630100081F
:10013000DFF810D000F01AF800480047550D00080D
:10014000AFF30080E80700200648804706480047D4
:10015000FEE7FEE7FEE7FEE7FEE7FEE7FEE7FEE777
:10016000FEE7FEE70502000831010008064C074DD6
:1001700006E0E06840F0010394E807009847103477
:10018000AC42F6D3FFF7D8FF002500082025000871
:1001900070B58C1810F8015B15F0070301D110F849
:1001A000013B2A1106D110F8012B03E010F8016B76
:1001B00001F8016B5B1EF9D12B0705D40023521EF9
:1001C0000DD401F8013BFAE710F8013BCB1A921C61
:1001D00003E013F8015B01F8015B521EF9D5A1425F
:1001E000D8D3002070BD00BFFEE700BFFEE700BF10
:1001F000FEE700BFFEE700BFFEE700BFFEE700BF6F
:10020000FEE700001CB54E48006840F470004C4901
:1002100008604C48006840F001004A49086000BF8F
:100220004848006800F002000028F9D045484068BE
:1002300000F00C00082866D100BF0020019002E009
:100240000198401C019001985028F9D33D4840681E
:100250000090009820F0F0000090009840F080009E
:1002600000903849009848600020019002E0019811
:10027000401C019001985028F9D332484068009002
:10028000009820F0F0000090009840F0900000905E
:100290002C49009848600020019002E00198401C21
:1002A000019001985028F9D32648406800900098A2
:1002B00020F0F0000090009840F0A000009021494C
:1002C000009848600020019002E00198401C0190D5
:1002D00001985028F9D31B4840680090009820F0FE
:1002E000F0000090009840F0B00000901549009890
:1002F00048600020019002E00198401C01900198A4
:100300005028F9D300BF0F48406820F003000D4982
:100310004860C82000F02FF80A4800680A490840E1
:10032000084908604FF41F0088600846006820F400
:100330008020086000204860C86200F08BFF1CBD70
:1003400088ED00E000100240FFFFF6FE10B501F05E
:1003500047FF10BD00BFFEE702E008C8121F08C13A
:10036000002AFAD170477047002001E001C1121F36
:10037000002AFBD1704708B50021009102E00099E6
:10038000491C009100EB8001009AB2EB410FF6D3BB
:1003900008BD10B50346D3F8C800806868B153F8AB
:1003A000C80F806880781C68A468E47840EA04205C
:1003B000108053F8C809806810BD0020108000BF6D
:1003C000FAE710B5034653F8C80F406880781C68F8
:1003D0006468E47840EA0420108053F8C809406853
:1003E00010BD0346D3F8C800006800781080D3F829
:1003F000C8000068704770B504460D46E07C50B1F7
:1004000000BFD4F8D010E06D0022CB6A11469847A7
:1004100000BF0021E174A078032808D1D4F8CC00F3
:10042000006920B1D4F8CC00016920468847207DBE
:1004300001280AD100BF04212175D4F8D000002181
:10044000826A2046904700BF04E0207D032801D146
:1004500000212175607830B1D4F8D000C168204601
:1004600088470020607070BD70B504460D46A078C6
:10047000032808D1D4F8CC00406920B1D4F8CC00CE
:10048000416920468847207D022803D1204600F09C
:10049000E5FE0EE0207D04280BD104F1180606EBE2
:1004A000051000210B460A4641600381428100BFCE
:1004B000217570BD2DE9F04104460F460125D4F8A1
:1004C000D00000221146436B04F10B00984706460A
:1004D000082E04D0204600F0CDFEBDE8F081E07A81
:1004E00000F0600020B1202809D0402815D10DE08F
:1004F00004F10B01204601F0DBFF05460EE004F19C
:100500000B01204600F0D6FE054607E004F10B0182
:10051000204601F0E5FF054600E000BF00BF0DBB2F
:10052000B4F8110018B9204600F098FE1DE0E07AFA
:1005300000F0800058B100BF012121756020035BED
:1005400000212046E26D01F0F3F900BF0DE000BF8D
:1005500002212175D4F8D0000021826A20469047FC
:1005600000BF02E0204600F085FE00BFB5E770B591
:1005700004460E460025307800F0030020B1012823
:1005800037D0022836D111E0A078022802D0032803
:1005900009D100E000BF7088012803D10021217239
:1005A000002070BD00E000BF00BF24E03579A078D6
:1005B00003281DD105F07F00042819D27088B8B92E
:1005C000B5B1802D14D02946204601F0B1FD78B197
:1005D00000BFD4F8D0002946C26B2046904700BF28
:1005E000D4F8CC003146C268204690470020D8E7B6
:1005F00001E000E000BF00BF0120D2E770B5044673
:100600000E460125A078022802D0032808D103E075
:10061000207800B9002504E0207800B1002500E032
:1006200000BF00BF35B901231A46214604F1580026
:1006300000F02FFE284670BD2DE9F04706460D4616
:100640000027B8464FF0010906F15804287800F059
:10065000030020B101284BD0022852D150E0688815
:10066000070A95F80280102F3FD2DFE807F03E0816
:10067000182331323334353E3E3E3E3E3E36781E00
:10068000304951F8203004F108024146304698477D
:100690006060E888402801D10820208126E0781E8B
:1006A000284951F8203004F1080241463046984765
:1006B00060601BE0B8F1EF0F09DA781E214951F8AC
:1006C000203004F1080241463046984760600DE052
:1006D00000BF00BF00BF00BF08E004F108024146B0
:1006E0003046FFF756FE606000E000BF00BF09E043
:1006F000D6F8CC002946C26830469047814601E0D2
:1007000000E000BF00BF2089C8B1E888B8B12089E7
:10071000E988884201DA208900E0E888208121897F
:10072000B6F81100814208DA2089218890FBF1F2A5
:1007300001FB120008B90121F1744FF0000948468D
:10074000BDE8F0878400002070B504460D46A0780F
:10075000012804D0022803D0032810D101E00FE0C3
:100760000EE0287950B9D4F8CC00411C01231A4678
:1007700004F1580000F08DFD002070BD00E000BFC6
:1007800000BF0120F9E700002DE9F04104460E46C4
:1007900035790127307800F0030020B101281FD0FF
:1007A00002283DD122E0A078022802D0032814D1EB
:1007B00000E000BF207918B101202049087002E054
:1007C00000201E490870207A28B11C48007840F0AB
:1007D00002001A490870002700E000BF00BF20E0B7
:1007E000A078032801D105B900271AE0A0780328D2
:1007F00015D105F08000802809D105F07F0104F1B2
:10080000580000EB011080780C49087006E004F1F4
:10081000180000EB0510807808490870002700E0F8
:1008200000BF00BF37B902231A46044904F158003B
:1008300000F02FFD3846BDE8F08100009000002058
:100840000246012070470246888888B9C88878B96E
:10085000887800F07F0050709078032808D0507896
:1008600010B10220907001E00120907000207047CC
:100870000120FCE770B504460D460126A8782549FD
:10088000087008460078012842D8A07801283CD09A
:10089000022802D0032839D110E01E48007858B150
:1008A000D4F8CC0042681B4801782046904719488C
:1008B000007820700320A070002628E015480078FA
:1008C00060B9D4F8CC00826812480178204690477D
:1008D0001048007820700220A07014E020780D49A4
:1008E000097888420FD02178D4F8CC00826820465D
:1008F0009047084800782070D4F8CC00426805483A
:10090000017820469047002601E000E000BF00BFCC
:10091000304670BD9200002002460020704770B53E
:1009200004460E460025307800F0030020B101286F
:1009300037D0022836D111E0A078022802D003284F
:1009400009D100E000BF7088012803D10121217284
:10095000002070BD00E000BF00BF24E03579A07822
:1009600003281DD105F07F00042819D27088B8B97A
:10097000B5B1802D14D02946204601F0D9FB78B1BD
:1009800000BFD4F8D0002946826B2046904700BFB4
:10099000D4F8CC003146C268204690470020D8E702
:1009A00001E000E000BF00BF0120D2E770B50446BF
:1009B0000D46A078012804D0022803D0032811D1C5
:1009C00001E010E00FE0287958B9A878D4F8CC10ED
:1009D0004870D4F8CC002946C268204690470020D1
:1009E00070BD00E000BF00BF0120F9E70246002013
:1009F000704710B50346D3F8C840E46854F82100A6
:100A00000478148010BD0146D1F8D40050B1D1F85B
:100A1000D4209078012804D11078012801D1002039
:100A2000704700BF0520FBE70146D1F8D420D1F87C
:100A3000CC000078FF2806D0012090701070FF20B5
:100A4000D1F8CC301870002070472DE9F0410446F1
:100A50000D4604F1580000EB0516D4F8D4707089E7
:100A60003188884207D105F07F0100231A462046CD
:100A700000F05EFF02E0012078703870BDE8F08180
:100A8000D0F8D4200123937000F1180303EB011375
:100A90005B895364704770B50546D5F8D440002093
:100AA000A07020704023E21C0321284600F0AFFE16
:100AB00070BD70B50546D5F8D440666C66B16078F7
:100AC000012809D100206070B3B2E21C81212846C0
:100AD00000F02EFF0020606470BD70B504460D4626
:100AE0008121204600F008FE0321204600F004FE8C
:100AF0008221204600F000FE002070BD7CB5044637
:100B00000D461C4B4FF4A0720021204600F06EFEF3
:100B1000184BDB1F4FF480720021204600F066FE68
:100B2000144B173BC0220021204600F05FFE124804
:100B30008169C4F8AC10C169C4F8C01000200F4925
:100B40008870012048700870002048640C4903C96F
:100B5000CDE900010948483000990160BDF8041052
:100B600081809DF8061081714838C4F8D4000020B7
:100B70007CBD0000E20000209402002094030020CD
:100B8000F82400082DE9FE4304460D464FF0010805
:100B90000020009001900290D4F8D4706E466878DE
:100BA000042815D007DC78B101280ED002280DD01A
:100BB00003283CD10BE020280BD0212818D0222874
:100BC00021D0232833D131E032E031E030E02FE092
:100BD0002EE06878D4F8CC100870EA88002307F17A
:100BE000480104F1180000F058FB4FF000081FE026
:100BF0000023072207F1480104F1580000F04DFBE3
:100C00004FF0000814E0A120307020207070002008
:100C1000B08070800220F080A87800F003008DF88A
:100C2000080000208DF80900804601E000E000BFC8
:100C300000BF4046BDE8FE834161704701617047D7
:100C400010B54FF4806303221021024800F004F82D
:100C500010BD000000080140F0B50446164600250E
:100C6000002201F00F0501F0100747B1042E05D155
:100C700045F00305E76B1F43E76300E035430020C1
:100C80001EE0012787401F40C7B122684FEA800C51
:100C90000F2707FA0CF7BA43870005FA07F73A431C
:100CA000282904D1012787401F40676105E04829B2
:100CB00003D1012787401F4027612260471CB8B23B
:100CC0000828DED3082022E0012787401F40E7B133
:100CD0006268A0F108074FEA870C0F2707FA0CF7A4
:100CE000BA43A0F10807BF0005FA07F73A432829DD
:100CF00004D1012787401F40676105E0482903D1DF
:100D0000012787401F4027616260471CB8B2102846
:100D1000DAD3F0BD30B50B46002100BF16E00A243F
:100D2000B4EB107F05D9302404EB107403F81140A4
:100D300005E0412404EB10740A3C03F81140000163
:100D400000254C00641C1D554C1CE1B29142E6DBB1
:100D500030BD000000F078F9FFF772FF114A124928
:100D6000124801F0EFF900F023F800BF0F48D0F867
:100D7000D00081680120884705200C49887000BF99
:100D800000BF0A4880780328FBD10AE00748FFF734
:100D90003AFE18B90548FFF77EFE02E00348FFF768
:100DA00088FEF3E79402002084020020B4020020B1
:100DB00010B54FF4A06000F091F800220221142039
:100DC00000F002F810BD00002DE9F04F04460E4679
:100DD00017464048006800F4E060B0F5A06F0FD0FF
:100DE00006DCB0F5407F0DD0B0F5806F0BD108E088
:100DF000B0F5C06F03D0B0F5E06F04D100BF00BF05
:100E000000BF00BF04E04FF4A06000F067F800BF2F
:100E100000BF00BF2F480068C0F3022003461846F9
:100E20003246BC460146C1F1070ABAF1040F02D9A5
:100E30004FF0040A01E0C1F1070AD14601F1040AAA
:100E4000BAF1070F02D24FF0000A01E0A1F1030A44
:100E5000D0464FF0010A0AFA09FAAAF1010A0AEA91
:100E6000020A0AFA08FA4FF0010B0BFA08FBABF181
:100E7000010B0BEA0C0B4AEA0B0500BF2146284682
:100E8000002906DB02074FEA126C134A02F801C080
:100E90000AE002074FEA12680E4A0C3201F00F0C0A
:100EA000ACF1040C02F80C8000BF204600280DDBDA
:100EB00000BF00BF00F01F020121914042099200D3
:100EC00002F1E022C2F8001100BF00BF00BFBDE880
:100ED000F08F00000CED00E000E400E00249014367
:100EE000024A1160704700000000FA050CED00E0B6
:100EF0002DE9F04F8CB0074600200A904AA090E8F8
:100F0000004CC068CDE905BECDF810A007900FF2E7
:100F10001C1ADAE9000ACDE9020A0FF2101ADAE91E
:100F2000000ACDE9000A44484068C0F381000B90F4
:100F30000B9820B1012804D002283FD103E03F4A9A
:100F40003EE03E4A3CE03C48406800F4803CBCF552
:100F5000803F12D13848C06A00F08048B8F1000FD5
:100F600001D1364B00E0364B3348406800F400397D
:100F7000B9F5003F02D15B0800E0324B2E484068D3
:100F8000C0F383412C48406800F0006008B141F094
:100F900010012948406800F0804008B141F020016C
:100FA0000F2901D2891C06E00F2903D33E2901D85D
:100FB000491C00E03F2103FB01F201E01F4A00BF92
:100FC00000BF1D484068C0F3031504A8465D22FA1F
:100FD00006F419484068C0F3022502A8465D24FAC9
:100FE00006F0099014484068C0F3C2251DF805605A
:100FF00024FA06F0089037B1012F06D0022F06D050
:10100000032F0AD106E00A9208E00A9406E0099844
:101010000A9003E008980A9000E000BF00BF0A9819
:101020000CB0BDE8F08F00000000000000000000E0
:1010300001020304060708090010024000127A00AA
:10104000006CDC0200093D0010B50020FFF750FFE6
:10105000044640F2026000F02BF81148844204D1AB
:101060004FF4800000F034F815E00E48844203D1BC
:10107000002000F02DF80EE00B48844204D14FF41C
:10108000400000F025F806E00848844203D14FF400
:10109000000000F01DF840F2177000F009F810BDD4
:1010A000006CDC0200A24A0400D8B805000E270735
:1010B000064A02EB9011096800F01F0301229A40D2
:1010C0001143024B03EB9012116070470010024075
:1010D000044A516821F4400141EA0002014B5A6080
:1010E00070470000001002402DE9F04104462078CE
:1010F000062813D00E480568001D0668001D076805
:101100003D4455B10822A11C2846FFF703FE0422E6
:1011100004F112013046FFF7FDFD06E005490868BD
:1011200010B16080010CA18000BFBDE8F08100001B
:10113000E8F7FF1F0021024008B500200021414AC6
:10114000126842F480323F4B1A6000BF401C3D4A97
:10115000126802F4003119B94FF6FF729042F5D1CE
:10116000384A126802F400320AB900BFFEE7354A75
:10117000D26942F08052334BDA61334A126842F44A
:101180004042314B1A602F4A52682E4B5A601A4621
:1011900052685A601A46526842F480625A601A468F
:1011A000526822F440325A601A46526842F4403281
:1011B0005A601A465268254B1A40224B5A601A460A
:1011C0005268234B1A431F4B5A601A46126842F06A
:1011D00080721A6000BF1B4A126802F00072002A77
:1011E000F9D0194A126842F48032174B1A6000BFD6
:1011F000154A526802F48032002AF9D0124A126865
:1012000042F40032104B1A6000BF0F4A526802F4D9
:101210000032002AF9D00B4A52680092009A22F05C
:1012200003020092009A42F002020092054B009ADB
:101230005A6000BF034A526802F00802002AF9D03F
:1012400008BD00000010024000700040FFFFC3B75F
:101250000000340810B5FFF76FFF10BD10B504464D
:1012600003212175D4F8D010E06D0022CB6A11461D
:10127000984710BD70B504460025D4F8D000294623
:10128000826B2046904700BF70BD41600281438160
:101290007047416002814381704741600281438110
:1012A00070470000417841F08001014A11607047A9
:1012B0004C5C004070B504460D46A078032808D168
:1012C000287930B9D4F8CC002946C2682046904726
:1012D00070BD0120FCE700000120084908600020E3
:1012E0000860091D0860054910310860034800685E
:1012F00040F41F400149086070470000405C004016
:101300000120044908600020091D08600320091F0E
:1013100008607047405C004010B50446012C04D1C1
:1013200081020548FFF78AFC04E04FF4806102481F
:10133000FFF782FC10BD000000080140F0B5034635
:101340000024002500266AB9214800EB0110C0687E
:10135000C0F309051E4800EB011080681D4F07EB24
:10136000400627E0012A23D11B4F07EB8100D0F86C
:10137000000C00F4804068B1154800EB0110406893
:10138000C0F30905124800EB01100068114F07EB8C
:1013900040060FE00E4800EB0110C068C0F30905DD
:1013A0000B4800EB011080680A4F07EB400601E094
:1013B0000020F0BD002405E036F8047B1F809B1C54
:1013C000601C84B2681CB4EB500FF5D32846F0E7DC
:1013D00000600040006000400050004070B58AB1DD
:1013E000154D05EB01152D68144E06EB4504002341
:1013F00003E0058820C4801C5B1C551CB3EB550F13
:10140000F7D300BF0C4B03EB01135A6000BF0C4D28
:1014100005EB8104D4F8004C48F6BF752C4084F0ED
:10142000300343F4004444F08004054E06EB81058C
:10143000C5F8004C00BF70BD006000400060004077
:10144000005000402DE9F84F04469846DFF8989286
:10145000D9F80490CDF80090DFF890A20AEB81094A
:10146000D9F8006CDDF8009009F1580909EB011377
:101470000AEB8109D9F8009C09F4C069B9F1000FA1
:1014800008D10AEB8109D9F8009C09F48079B9F1F7
:10149000000F0AD1DFF854A20AEB8109D9F8009CA9
:1014A00009F4C069B9F5806F02D14FF0010901E07C
:1014B0004FF00009B9F1000F7DD0B8F1010F7BD1D9
:1014C000B3F80090914578DADFF8249209EB01191E
:1014D000D9F80090DFF81CA20AEB4907DFF8109258
:1014E00009EB0119D9F808900AEB490C06F04009FC
:1014F000B9F1000F32D0002005E0B4F800904CF8AC
:10150000049BA41C401CB3F8009009F10109B0EB46
:10151000590FF2D3002005E0B4F8009047F8049B7F
:10152000A41C401CB3F80090A2EB090909F10109C1
:10153000B0EB590FF0D3B3F80090DFF8B4A10AEB89
:10154000011ACAF80C90B3F80090A2EB0909DFF871
:10155000A0A10AEB011ACAF80490ABE0002005E054
:10156000B4F8009047F8049BA41C401CB3F800900A
:1015700009F10109B0EB590FF2D3002005E0B4F8EE
:1015800000904CF8049BA41C401CB3F80090A2EB04
:10159000090909F10109B0EB590FF0D3B3F8009034
:1015A000DFF84CA10AEB011ACAF80490B3F80090D6
:1015B000A2EB090902E095E042E006E0DFF830A185
:1015C0000AEB011ACAF80C9074E006F04009B9F170
:1015D000000F0AD0DFF8189109EB0119D9F808902B
:1015E000DFF810A10AEB490509E0DFF8049109EBE7
:1015F0000119D9F80090DFF8FCA00AEB490562B1A7
:10160000002005E0B4F8009045F8049BA41C401CA1
:1016100002F10109B0EB590FF4D306F04009B9F11A
:10162000000F06D0DFF8C89009EB0119C9F80C20AB
:1016300040E0DFF8BC9009EB0119C9F8042039E05B
:1016400006F04009B9F1000F0AD0DFF8A49009EBC9
:101650000119D9F80090DFF89CA00AEB490509E0D0
:10166000DFF88C9009EB0119D9F80890DFF884A015
:101670000AEB490562B1002005E0B4F8009045F896
:10168000049BA41C401C02F10109B0EB590FF4D3D8
:1016900006F04009B9F1000F06D0DFF8549009EBCD
:1016A0000119C9F8042005E0DFF8449009EB01199D
:1016B000C9F80C2000BFDFF834B00BEB810ADAF870
:1016C00000AC48F6BF7B0AEA0B0A8AF0300949F4FD
:1016D000004A4AF0800ADFF814E00EEB810BCBF8E9
:1016E00000AC00BFBDE8F88F0000002000500040B3
:1016F000006000400060004070B504460D46D4F81C
:10170000D0002946426A2046904770BD70B5044615
:1017100001F07F00CA1192B300BF334B03EB80028C
:10172000D2F8002C02F04002A2B100BF1D4605EB2A
:101730008003D3F8003C48F68F752B4043F04002FD
:1017400042F4004343F08003274E06EB8005C5F8C2
:10175000003C00BF00BF00BF234D05EB8003D3F862
:10176000003C48F6BF7503EA050242F4004343F02B
:1017700080031D4E06EB8005C5F8003C33E0FFE713
:1017800000BF194B03EB8002D2F8002C02F4804218
:10179000A2B100BF1D4605EB8003D3F8003C48F61C
:1017A0008F752B4043F4804242F4004343F08003A2
:1017B0000D4E06EB8005C5F8003C00BF00BF00BF22
:1017C000094D05EB8003D3F8003C4BF68F7503EA17
:1017D000050242F4004343F08003034E06EB80050C
:1017E000C5F8003C00BF70BD005000402DE9F0413D
:1017F00004460D4616461F46D4F8D0003B463246F6
:101800002946D0F820C02046E047BDE8F0812DE908
:10181000F04104460D4616461F4605F07F0104F1CF
:10182000180000EB011800233A4631464046FFF706
:101830002CFDD4F8D0002946826A20469047BDE8A6
:10184000F081000030B50246002102F158008023EB
:10185000264C236000236360402303804038A3604C
:10186000038003883E2B16D9037803F01F0343B18E
:1018700003885B114FF4004444EA83231B4CE3606C
:1018800010E003880124C4EB6313E40344EA8323D8
:10189000164CE36006E003885B1C23F001035B0247
:1018A000124CE36001210FE0114C04EB8103D3F8EB
:1018B000003C48F68F74A3430B430D4D05EB8104A8
:1018C000C4F8003C4B1CD9B20429EDD3094B1B686A
:1018D0009BB2084C236043F2202323608023054CF5
:1018E0004C3423600123937030BD00000060004041
:1018F00000500040005C004030B5024600BF4B067F
:101900000A4C04EBD353D3F8003C4BF68F742340BE
:1019100083F4405040F4004343F080034C06034DF1
:1019200005EBD454C4F8003C00BF30BD005000406B
:101930002DE9F04781468A4617461E460AF07F0881
:1019400009F1580000EB0814324901EB8800D0F887
:10195000000C00F4C06030B901EB8800D0F8000C36
:1019600000F4807048B92B4901EB8800D0F8000CD6
:1019700000F4C060B0F5806F01D1012000E00020CC
:1019800080B320884000B04201D9304601E0208871
:10199000400085B2D9F8D00001232A464146D0F84C
:1019A00030C03846E04736B1701E21880844B0FB8D
:1019B000F1F0A08101E00120A081A089022809D1D5
:1019C0002088281A83B2701B82B279192046FFF74B
:1019D0005CFC1DE0701B82B279192B462046FFF794
:1019E00054FC15E0FFE72088B04201DD304600E0FE
:1019F00020880546D9F8D0002A464146C36A3846B1
:101A00009847701B82B279192B462046FFF73DFCA0
:101A1000BDE8F087005000402DE9F04706460C462F
:101A20001D46AF7807F07F00A988002395F803C012
:101A30000CF0030CDFF8D88458F82CC04CEA000CEA
:101A4000DFF8D09409EB8008C8F800CC4FEAE71C17
:101A5000BCF1000F7DD006F1580C0CEB001319807F
:101A6000DCB9DFF8B4C40CEB001CCCF8002000BFDC
:101A700009EB8008D8F8008C48F6BF7908EA090815
:101A800088F0200C4CF4004848F08008DFF884A46B
:101A90000AEB8009C9F8008C38E2012CFCD100BFA8
:101AA000DFF8709409EB8008D8F8008C48F480784F
:101AB00048F68F7908EA090C4CF4004848F0800891
:101AC000DFF850A40AEB8009C9F8008C00BF00BF02
:101AD000D04608EB800CDCF800CC0CF0400CBCF1DC
:101AE000000F14D000BFC14609EB8008D8F8008C65
:101AF00048F68F7908EA090848F0400C4CF4004891
:101B000048F080080AEB8009C9F8008C00BF00BFCC
:101B100000BFDFF8008408EB800CDCF800CC0CF48C
:101B2000804CBCF1000F18D000BFC14609EB800803
:101B3000D8F8008C48F68F7908EA090848F4804CF8
:101B40004CF4004848F08008DFF8C8A30AEB80098D
:101B500000E076E0C9F8008C00BF00BF00BFDFF8EE
:101B6000B49309EB8008D8F8008C48F68F7908EA1E
:101B7000090848F4804C4CF4004848F08008DFF82D
:101B800094A30AEB8009C9F8008C00BF1FFA82FCFD
:101B9000DFF8848308EB0018C8F800C04FEA124C45
:101BA000DFF8748308EB0018C8F808C0D04608EBCB
:101BB000800CDCF800CC0CF4C06CBCF5806F14D049
:101BC00000BFC14609EB8008D8F8008C48F6BF7901
:101BD00008EA090888F0200C4CF4004848F0800816
:101BE0000AEB8009C9F8008C15E000BFDFF82493E8
:101BF00009EB8008D8F8008C48F6BF7908EA090C90
:101C00004CF4004848F08008DFF808A30AEB80098C
:101C1000C9F8008C00BF00BFDFF8F89209EB80081C
:101C2000D8F8008C4BF68F7908EA090C4CF4004880
:101C300048F08008DFF8DCA20AEB8009C9F8008CC4
:101C400064E106F1180C0CEB0013198034B9DFF8CD
:101C5000C8C20CEB001CCCF80820B9E0012C7DD1E7
:101C600000BFDFF8B09209EB8008D8F8008C48F488
:101C7000807848F68F7908EA090C4CF4004848F05F
:101C80008008DFF890A20AEB8009C9F8008C00BF39
:101C900000BFD04608EB800CDCF800CC0CF4804C84
:101CA000BCF1000F14D000BFC14609EB8008D8F882
:101CB000008C48F68F7908EA090848F4804C4CF407
:101CC000004848F080080AEB8009C9F8008C00BF82
:101CD00000BF00BFDFF83C8208EB800CDCF800CCD2
:101CE0000CF0400CBCF1000F16D000BFC14609EB50
:101CF0008008D8F8008C48F68F7908EA090848F07F
:101D0000400C4CF4004848F08008DFF808A20AEBC9
:101D10008009C9F8008C00BF00BF00BFDFF8F49154
:101D200009EB8008D8F8008C48F68F7908EA090892
:101D300048F0400C4CF4004848F08008DFF8D4A18B
:101D40000AEB8009C9F8008C00BF1FFA82FCDFF89B
:101D5000C88108EB0018C8F800C000E038E04FEA7E
:101D6000124CDFF8B48108EB0018C8F808C03E290F
:101D700022D993F800C00CF01F0CBCF1000F0CD05E
:101D80004FEA611C4FF4004848EA8C2CDFF8888148
:101D900008EB0018C8F804C01AE04FF0010CCCEBB7
:101DA000611C4FF4004848EA8C2CDFF86C8108EB8A
:101DB0000018C8F804C00BE001F1010C2CF0010C74
:101DC0004FEA4C2CDFF8508108EB0018C8F804C02B
:101DD0003E2926D993F800C00CF01F0CBCF1000F6F
:101DE0000ED0B3F800C04FEA6C1C4FF4004848EA2C
:101DF0008C2CDFF8248108EB0018C8F80CC01CE01C
:101E0000B3F800C04FF00108C8EB6C1C4FF4004859
:101E100048EA8C2CDFF8008108EB0018C8F80CC0E9
:101E20000BE001F1010C2CF0010C4FEA4C2CDFF817
:101E3000E88008EB0018C8F80CC0BCB900BFDFF898
:101E4000D49009EB8008D8F8008C4BF68F7908EA1B
:101E5000090888F4005C4CF4004848F08008DFF87A
:101E6000B4A00AEB8009C9F8008C4FE0012C4DD1D9
:101E7000DFF8A08008EB800CDCF800CC0CF4C06C20
:101E8000BCF5806F16D000BFC14609EB8008D8F8BA
:101E9000008C4BF68F7908EA090888F4005C4CF452
:101EA000004848F08008DFF86CA00AEB8009C9F808
:101EB000008C15E000BFDFF85C9009EB8008D8F8D3
:101EC000008C4BF68F7908EA090C4CF4004848F076
:101ED0008008DFF840A00AEB8009C9F8008C00BF39
:101EE00000BFDFF8309009EB8008D8F8008C48F686
:101EF000BF7908EA090C4CF4004848F08008DFF884
:101F000014A00AEB8009C9F8008C00BFBDE8F08777
:101F1000E8240008005000400060004070B505460D
:101F20000E4606F07F04F011E8B33146284600F073
:101F3000F5F810287CD100BF3E4901EB8400D0F8B1
:101F4000000C00F04000A0B100BF0A4602EB840183
:101F5000D1F8001C48F68F72114041F0400040F467
:101F6000004141F08001334B03EB8402C2F8001CB6
:101F700000BF00BF002105F1580000EB0410817084
:101F800000BF2C4A02EB8401D1F8001C48F6BF7256
:101F9000114081F0300040F4004141F08001254BB8
:101FA00003EB840200E002E0C2F8001C40E031468E
:101FB000284600F0B3F8B0F5805F39D100BF1D4965
:101FC00001EB8400D0F8000C00F48040A0B100BF09
:101FD0000A4602EB8401D1F8001C48F68F721140CA
:101FE00041F4804040F4004141F08001114B03EB8B
:101FF0008402C2F8001C00BF00BF002105F11800D8
:1020000000EB0410817000BF0A4A02EB8401D1F892
:10201000001C4BF68F72114081F4405040F4004197
:1020200041F08001034B03EB8402C2F8001C00BFA7
:1020300070BD00000050004070B5024601F07F0006
:10204000E8B900BF2A4C246848F6BF752C4084F0DC
:10205000100343F4004444F08004254D2C6000BF7D
:1020600000BF2C4624684BF68F752C4084F48053B7
:1020700043F4004444F080041D4D2C6037E0CB1144
:10208000D3B1012402F1580303EB00139C7000BF8D
:10209000184D05EB8004D4F8004C48F6BF752C4071
:1020A00084F0100343F4004444F08004114E06EB26
:1020B0008005C5F8004C1AE0012402F1180303EB77
:1020C00000139C7000BF0B4D05EB8004D4F8004C4E
:1020D0004BF68F752C4084F4805343F4004444F055
:1020E0008004044E06EB8005C5F8004C00BF70BDAF
:1020F000005C00400050004010B503464806064C06
:1021000004EBD050D0F8002CC81110B102F0300010
:1021100010BD02F44050FBE70050004070B504468B
:102120000D46D4F8D0002946026C2046904770BD79
:1021300070B504460D46D4F8D0002946026C2046FE
:10214000904770BD70B504460D46164608201649E6
:10215000087001204870400248800846446044F8F6
:10216000C85F66601148A060C83C00212175104816
:10217000C4F898000F499C2001510F49A02001513B
:10218000D4F8C8004068C079C0F3801020710121E4
:10219000E171D4F8D01008688047D4F8C810C96835
:1021A000C868FEF7A1FF70BD0000002008000020F5
:1021B000B504000869040008F703000810B50446D8
:1021C000A078E0700420A070E07930B100BFD4F8AE
:1021D000D0100869804700BF01E00321A17110BD44
:1021E0002DE9FC419F48006880B201909D4800683D
:1021F00000F47F4000909B48001F00681FFA80F8A1
:10220000BDF8000000EA0800009097484468BDF857
:10221000000000F4004000287ED0A9E0BDF80400D2
:1022200000F00F05BDF8040000F01000002862D097
:102230008E4901EB8500D0F8000C00F40040002826
:1022400023D000BF0A4602EB8501D1F8001C40F6FE
:102250008F7201EA020040F08001844B03EB85029B
:10226000C2F8001C00BF194601EB8500D0F8000C35
:1022700000F4006060B14DB905EB450104F1980030
:1022800050F8212029462046904770E0BDE8FC81A7
:1022900004F1180000EB05167068D4F8D010002285
:1022A0004B6B2946984707467068384470607089C0
:1022B0003844708170893189884202DA3088B842A6
:1022C00012DD05EB450104F1980000EB8100406848
:1022D00080B105EB450104F1980000EB810029462F
:1022E00042682046904705E0D4F8D0002946826A2B
:1022F000204690473BE05D4901EB8500D0F8000C9B
:1023000000F0800098B300BF0A4602EB8501D1F8C7
:10231000001C48F60F7200E033E001EA020040F4CE
:102320000041524B03EB8502C2F8001C00BF04F1D0
:10233000580000EB0516308990B905EB450104F112
:10234000980000EB8100806880B105EB450104F145
:10235000980000EB8100294682682046904705E0FE
:102360003389294620467268FFF7E2FA00BF00BFB2
:102370003C48006880B2019000F4004000287FF4DF
:102380004DAFBDF8000000F4805070B16FF4805084
:1023900034490860E078A070607A30B900BFD4F8A2
:1023A000D0104869804700BF00BFBDF8000000F4AE
:1023B000006060B12B48001F006800F0100030B9C9
:1023C0002046FFF7FBFE6FF4006026490860BDF869
:1023D000000000F4007058B16FF4007021490860EB
:1023E0002348006820B122480068016820468847D9
:1023F000BDF8000000F4807018B36FF480701949C4
:102400000860A079E8B1A079401EC1B2A171C1B93C
:10241000607A50B11348001F006820F01000114985
:10242000091F0860002161720BE00E48001F006860
:1024300040F010000B49091F08600321A171012120
:102440006172BDF8000000F4806040B16FF48060FC
:1024500004490860D4F8D000C1692046884700BF0D
:1024600014E70000445C00400000002000500040E1
:102470004C0000200548006820F004000349086073
:102480000846006820F0080008607047405C004083
:1024900005494968097A012905D10449096841F0CB
:1024A0001001024A1160704700000020405C0040AB
:1024B00070B505460C466078034951F82020214646
:1024C0002846904770BD0000500000200348006877
:1024D00040F00C000149086070470000405C00407B
:1024E00002460120704700000002000000040000C6
:1024F000000000000006000000C20100000008000B
:102500002025000800000020B4020000900100080F
:1025100040260008B40200203405000068030008CB
:102520008113D912140801131B0819041AA50C13DE
:10253000CD241B0875041A91041B451818121A148F
:10254000080D171B08F90C1ADD241345141B083D50
:10255000081339201C081D1F181908411389071476
:10256000086F05140841084C081F09081A47041B86
:1025700039064419101AFD1C1A75101A49281AAD8B
:10258000101AED0413E3031B08C3041AF30C4113E0
:1025900012012302021640E9288A011009010102F2
:1025A000030109024313020125803209041B0102C1
:1025B0000B1305241D100105242010080424020219
:1025C000052406170107058203081C0A09043F3287
:1025D0000A2E0705030240072A8107100804030991
:1025E00004160347126912671261124412651A76C3
:1025F0000C1A6308016C1A1A821244123312321236
:102600002D1A430A1243125F1A41060A694D8201CC
:102610008122E91B20ED04136F011B20F1041A94A1
:102620000C1AA604411374023320FF13FD0A1B0881
:10263000DB0413850B42081A290C1A4B041A810477
:0400000508000131BD
:00000001FF
