:020000040800F2
:10000000300D0020690100085F0200085702000857
:100010005B0200084F020008E50300080000000032
:10002000000000000000000000000000670200085F
:100030005302000800000000630200086D0200087F
:100040008301000883010008830100088301000880
:100050008301000883010008830100088301000870
:100060008301000883010008830100088301000860
:100070008301000883010008830100088301000850
:100080008301000883010008830100088301000840
:100090008301000883010008830100088301000830
:1000A0008301000883010008830100088301000820
:1000B00083010008CD0300088301000883010008C4
:1000C0008301000883010008830100088301000800
:1000D00083010008830100088301000883010008F0
:1000E00083010008830100088301000883010008E0
:1000F000830100088301000883010008000000005C
:10010000830100080000000083010008830100084B
:1001100083010008830100088301000883010008AF
:10012000830100088301000883010008830100089F
:10013000830100088301000883010008830100088F
:10014000830100088301000883010008D50300082B
:10015000DFF810D000F03EF800480047F118000822
:10016000AFF30080300D0020064880470648004766
:10017000FEE7FEE7FEE7FEE7FEE7FEE7FEE7FEE757
:10018000FEE7FEE7850200085101000840EA01038E
:100190009B0703D009E008C9121F08C0042AFAD23D
:1001A00003E011F8013B00F8013B521EF9D2704701
:1001B000D2B201E000F8012B491EFBD270470022A9
:1001C000F6E710B513460A4604461946FFF7F0FF56
:1001D000204610BD064C074D06E0E06840F00103E4
:1001E00094E8070098471034AC42F6D3FFF7B4FF09
:1001F000083800082838000870B58C1810F8015B22
:1002000015F0070301D110F8013B2A1106D110F8AF
:10021000012B03E010F8016B01F8016B5B1EF9D1B3
:100220002B0705D40023521E0DD401F8013BFAE739
:1002300010F8013BCB1A921C03E013F8015B01F8A4
:10024000015B521EF9D5A142D8D3002070BD00BF7A
:10025000FEE700BFFEE700BFFEE700BFFEE700BF0E
:10026000FEE700BFFEE700BFFEE7000010B501F0AB
:100270006FF903480068401C0149086010BD000088
:10028000040000201CB54E48006840F470004C4942
:1002900008604C48006840F001004A49086000BF0F
:1002A0004848006800F002000028F9D0454840683E
:1002B00000F00C00082866D100BF0020019002E089
:1002C0000198401C019001985028F9D33D4840689E
:1002D0000090009820F0F0000090009840F080001E
:1002E00000903849009848600020019002E0019891
:1002F000401C019001985028F9D332484068009082
:10030000009820F0F0000090009840F090000090DD
:100310002C49009848600020019002E00198401CA0
:10032000019001985028F9D3264840680090009821
:1003300020F0F0000090009840F0A00000902149CB
:10034000009848600020019002E00198401C019054
:1003500001985028F9D31B4840680090009820F07D
:10036000F0000090009840F0B0000090154900980F
:1003700048600020019002E00198401C0190019823
:100380005028F9D300BF0F48406820F003000D4902
:100390004860C82000F04BF80A4800680A49084045
:1003A000084908604FF47F0088600846006820F420
:1003B0008020086000204860C86201F0F9FD1CBD83
:1003C00088ED00E000100240FFFFF6EA10B502F0F1
:1003D00089F910BD10B5024802F0B3FF10BD00004E
:1003E000D001002000BFFEE710B5002804DB0A079B
:1003F000130E054A135406E00A07140E034A00F0D0
:100400000F031B1FD45410BD00E400E018ED00E002
:1004100002E008C8121F08C1002AFAD170477047CD
:10042000002001E001C1121F002AFBD1704708B56E
:100430000021009102E00099491C009100EB80012D
:10044000009AB2EB410FF6D308BD0346D3F8B003D0
:10045000806880781080D3F8B0038068704710B54A
:100460000346D3F8B00340688478D3F8B0034068FB
:10047000C07844EA00201080D3F8B003406810BD73
:100480000346D3F8B003006800781080D3F8B003B7
:100490000068704770B504460D460026287800F0C5
:1004A000030020B1012813D0022829D111E0CE2069
:1004B000005D022803D0CE20005D032807D16888A4
:1004C000012804D1002184F8A213002070BD18E097
:1004D00017E02E79CE20005D032810D1688860B91E
:1004E0005EB1802E09D03146204602F0D8FCD4F807
:1004F000B4032946C268204690470020E6E700E0A2
:1005000000BF00BF0120E1E710B502460C46012004
:1005100002F1D001CE239B5C022B02D0032B0AD127
:1005200004E092F8CC3003B9002005E092F8CC301A
:1005300003B1002000E000BF00BF20B902F1CC03EE
:100540008B6001234B6110BD2DE9F04707460D4636
:100550000026B0464FF0010907F1D004287800F0DA
:10056000030020B101284BD0022852D150E0688806
:10057000060A95F80280102E3FD2DFE806F03E080A
:10058000182331323334353E3E3E3E3E3E36701EF9
:10059000304951F8203004F114024146384698475A
:1005A000A060E888402801D10820606126E0701E24
:1005B000284951F8203004F1140241463846984742
:1005C000A0601BE0B8F10A0F09DA701E214951F84A
:1005D000203004F11402414638469847A0600DE0EF
:1005E00000BF00BF00BF00BF08E004F11402414695
:1005F0003846FFF72AFFA06000E000BF00BF09E017
:10060000D7F8B4032946C26838469047814601E0CE
:1006100000E000BF00BF6069C0B1E888B0B1E98800
:10062000606988420ED2A188606988420CD3A18893
:100630006069B0FBF1F201FB120028B9012187F8D3
:10064000AD1301E0E88860614FF000094846BDE85D
:10065000F0870000740000200246CE20805C012854
:1006600004D0022803D0032810D101E00FE00EE0EF
:100670000879012809D802F1D003D2F8B403401C4C
:100680009860012058610020704700E000BF00BF63
:100690000120F9E770B502460B461979012002F1F5
:1006A000D0041D7805F0030525B1012D1FD0022DC2
:1006B00044D124E0CE25AD5C022D03D0CE25AD5C27
:1006C000032D13D192F8A0531DB101251F4E357093
:1006D00002E000251D4E357092F8A2532DB11B4D3E
:1006E0002D7845F00205194E3570002027E0CE2503
:1006F000AD5C032D02D1012900D800201FE0CE25DA
:10070000AD5C032D19D101F08005802D0BD101F0D6
:100710007F0505EB450602F1D00505EBC605AD7872
:100720000A4E357008E001EB410602F50E7505EB47
:10073000C605AD78054E3570002000E000BF00BF53
:1007400018B9024DA5600225656170BD80000020CA
:1007500002460120704710B50246888838BBC88819
:1007600028BB887800F07F03CD208354CE20805CA6
:1007700003281CD0CD23985C00BF53691B6823F469
:10078000FE6453691C6053691B6843EA0014536993
:100790001C6000BF00BFCD20805C18B10223CE20BA
:1007A000835402E00123CE208354002010BD012099
:1007B000FCE7000070B504460D460126A8782949DB
:1007C00008700846007801284AD8CE20005D01282C
:1007D00043D0022802D0032840D112E021480078FB
:1007E00068B1D4F8B40342681E48017820469047A7
:1007F0001C48007884F8CC000321CE200155002647
:100800002DE01848007870B9D4F8B4038268154810
:100810000178204690471348007884F8CC000221E4
:10082000CE20015517E094F8CC000E490978884293
:1008300011D0D4F8B40382680A4801782046904762
:100840000848007884F8CC00D4F8B403426805481E
:10085000017820469047002601E000E000BF00BF7D
:10086000304670BD8200002002460020704770B5FF
:1008700004460D460026287800F0030020B1012828
:1008800013D0022823D111E0CE20005D022803D02E
:10089000CE20005D032807D16888012802D10121FC
:1008A00084F8A213002070BD12E011E02E79CE2052
:1008B000005D03280AD1688830B92EB1802E03D09C
:1008C0003146204602F0CEFA0020ECE700E000BFFF
:1008D00000BF0120E7E770B504460D46CE20005D5D
:1008E000012804D0022803D0032812D101E011E02E
:1008F00010E0287901280BD8D4F8B403006928B196
:10090000D4F8B4032946026920469047002070BD00
:1009100000E000BF00BF0120F9E702460020704759
:1009200010B50346D3F8B043E46854F821000478C6
:10093000148010BD00B589B040F2197001F056FA6C
:100940004FF4C06001F052FA40F2036001F04EFA39
:1009500001214FF4EA1000F06FFE4FF40073032200
:100960001821274800F00AFE4FF480730322482123
:10097000234800F003FE06A9002000F01AFB002027
:100980008DF8180001208DF81D0000208DF81E0044
:1009900001208DF81F0000208DF820008DF8210027
:1009A0008DF81C008DF8190007208DF81A00022020
:1009B0008DF81B000520ADF8220006A9114800F0B3
:1009C00027F901A9012000F0F4FA0020ADF80E008B
:1009D000ADF810000120ADF812000020ADF80400C1
:1009E000ADF80600ADF80800ADF80A00ADF80C004F
:1009F00001208DF8140001A800F082F809B000BDB4
:100A0000000C01400064004010B504460CB9002001
:100A100010BD0021064800F0ABFA08B90020F7E746
:100A200022460021024800F084F90120F0E700008E
:100A3000006400402DE9F04786B006468846174618
:100A40001C46DFF8B49000254FF0030A07B11CB92B
:100A5000002006B0BDE8F087082C00D9082401A9C1
:100A6000022000F0A6FAB8F1000F08D026F060408E
:100A700002900020019004208DF80C0006E0C6F3DF
:100A80000A000190002002908DF80C0000208DF8E3
:100A90000D008DF80E40002505E0795D0DF10F0089
:100AA0004155681CC5B2A542F7DB01A9134800F007
:100AB000B3F98246BAF1030F01D10420C9E701E07E
:100AC000A9F1010951460D4800F034FB022802D17A
:100AD000B9F1000FF4D15146084800F02BFB022871
:100AE00005D15146054800F0B6FA0520B1E7514658
:100AF000024800F01FFBACE7FFFF0F00006400405E
:100B000010B50021837A012202FA03F13E4A1268ED
:100B100042F001023C4B1A603B4A1C3212688A4385
:100B2000394B1C331A60C289DAB9374A0C32126861
:100B30008A43354B0C331A60C288344B03EA0242B5
:100B400043881A434389304C403444F83320828828
:100B50002E4B03EA024203881A43438904EBC30382
:100B60005A60C289012A1BD1274A0C3212680A43F3
:100B7000254B0C331A600288244B03EA0242438857
:100B80001A434389204C403444F8332082881F4B59
:100B900003EA0242C3881A43438904EBC3035A6041
:100BA00082893AB9184A121D12688A43164B1B1DD6
:100BB0001A6006E0144A121D12680A43124B1B1DEC
:100BC0001A6002893AB9104A143212688A430E4BED
:100BD00014331A6006E00C4A143212680A430A4BB6
:100BE00014331A60027C012A06D1074A1C321268AB
:100BF0000A43054B1C331A60034A126822F00102B3
:100C0000014B1A6010BD0000006600400000FFFFAD
:100C100070B502464FF6FF730020146824F00204FA
:100C20001460146844F00104146000E05B1E546812
:100C300004F001040CB9002BF8D1546804F001044D
:100C40000CB9002074E00C784FF0404505EA84743C
:100C50004D784FF0407606EA05652C438D784FF4C9
:100C6000702606EA05452C43CD784FF4E00606EAE7
:100C700005552C434D896D1EC5F309052C43D461E0
:100C80000C79012C04D1146844F08004146003E052
:100C9000146824F0800414604C79012C04D1146889
:100CA00044F04004146003E0146824F0400414602D
:100CB0008C79012C04D1146844F02004146003E002
:100CC000146824F020041460CC79012C04D1146839
:100CD00024F01004146003E0146844F0100414605D
:100CE0000C7A012C04D1146824F00804146003E089
:100CF000146844F0080414604C7A012C04D1146880
:100D000044F00404146003E0146824F00404146044
:100D1000146824F0010414604FF6FF7300E05B1EBA
:100D2000546804F001040CB1002BF8D103B1012088
:100D300070BD10B500F5D87303EB01131B6803F009
:100D400004031372137A3BB900F5D87303EB011354
:100D50001B685B0D136006E000F5D87303EB01130D
:100D60001B68DB08536000F5D87303EB01131B68A5
:100D700003F00203537200F5DA7303EB01131B68EF
:100D80001B0AD37400F5DA7303EB01131B6803F03D
:100D90000F03937200F5DC7303EB01131B68D3722E
:100DA00000F5DC7303EB01131B681C0A147300F5D8
:100DB000DC7303EB01131B681C0C547300F5DC732C
:100DC00003EB01131B681C0E947300F5DE7303EB39
:100DD00001131B68D37300F5DE7303EB01131B686B
:100DE0001C0A147400F5DE7303EB01131B681C0C62
:100DF000547400F5DE7303EB01131B681C0E94742E
:100E000021B9C36843F02003C36003E0036943F0E2
:100E10002003036110BD000030B502460020936836
:100E200003F08063B3F1806F00D110E0936803F0AA
:100E30000063B3F1006F01D1012008E0936803F073
:100E40008053B3F1805F01D1022000E0032003282A
:100E50007DD002F5C07303EB00131B6803F001049F
:100E600002F5C07303EB00131C600B7A8BB90B887F
:100E70003E4C04EA43534C7A234302F5C07404EB1E
:100E800000142468234302F5C07404EB00142360AB
:100E900013E06FF007044B6804EAC3030C7A2343A2
:100EA0004C7A234302F5C07404EB001424682343F6
:100EB00002F5C07404EB0014236002F5C27303EB67
:100EC00000131B6823F00F0402F5C27303EB001339
:100ED0001C608B7A082B01D908238B7202F5C27330
:100EE00003EB00131B688C7A234302F5C27404EBF6
:100EF000001423608B7B4FF07F4404EA03634C7B38
:100F00004FF47F0505EA044423430C7B2D1205EAC8
:100F100004242343CC7A234302F5C47404EB001465
:100F200023608B7C2C0404EA03634C7C2D0205EACD
:100F3000044423430C7C2D1205EA04242343CC7B78
:100F4000234302F5C67404EB0014236000E00BE0B9
:100F500002F5C07303EB00131B6843F0010402F5B4
:100F6000C07303EB00131C6030BD00000000E0FF05
:100F70000246002019B9D36803F0030004E00129F8
:100F800002D1136903F00300704700B585B009E092
:100F90009DF8090000B105E0684600F07FF900F017
:100FA000EBFD00BF6846FFF72FFD0028F0D105B02C
:100FB00000BD10B5024609B900BFFEE732B1012AF3
:100FC00016D0022A20D0032A41D12EE000234B71F3
:100FD000CB718B7140F2FF334B8100230B724B704E
:100FE00002238B700023CB700B714B720B7030E0BF
:100FF0000123CB8100230B740B810B804B808B80F2
:10100000CB808B814B8124E0002005E0002401F19E
:101010000B031C54431CD8B20828F7D300238B724F
:101020004B600B724B720B6013E0002005E0002454
:1010300001F10B031C54431CD8B20828F7D300233A
:101040008B724B600B72CB744B720B6001E000BF74
:10105000FEE700BF10BD70B502460B4601204FF6FB
:10106000FF7100240025166806F00404EBB99668A9
:1010700006F07055042C04D1B5F1005F01D10020B9
:1010800056E0966846F08006966000E0491E966835
:1010900006F08006802E01D10029F7D1966806F06F
:1010A0008006802E44D1002042E0012B1FD196689B
:1010B00006F0B845042C04D1B5F1804F01D10020D1
:1010C00036E0966846F40046966000E0491E966851
:1010D00006F40046B6F5004F01D10029F6D1966816
:1010E00006F40046B6F5004F22D1002020E0022B86
:1010F0001ED1966806F01C45042C04D1B5F1004FB2
:1011000001D1002014E0966846F40006966000E0E5
:10111000491E966806F40006B6F5000F01D10029B5
:10112000F6D1966806F40006B6F5000F00D100204F
:1011300070BD000030B502460020002321B1012916
:1011400007D002290FD109E09468144D04EA050381
:101150000BE09468124D04EA050306E09468114D13
:1011600004EA050301E0002300BF00BF53B1A3F16F
:101170008064E41E44B10C4D2C443CB10B4D2C4416
:1011800044B905E0022007E0012005E0012003E06A
:10119000012001E0002000BF00BF30BD03000004BB
:1011A000000300080000031003FDFFFB0003FDF730
:1011B0002DE9F04100250026002400275DE001F024
:1011C000A7F900B95FE001F0BCFC00B15BE02F487B
:1011D0002F49098800EB011047792C482C490988D0
:1011E00000EB01100568AA202A49087055204870B4
:1011F00026482749098800EB0110007908B1022030
:1012000000E0012023498870280EC870280C08715E
:10121000280A48718D710846C771002410E0BC424D
:1012200007DA1A481A49098800EB0110801D005D91
:1012300000E0002004F10801164A5054601CC4B2BA
:10124000082CECD30026022405E01248005D30444F
:10125000C6B2601CC4B20F2CF7D90E480674EE203B
:101260000C49487412210B4801F0EEF90848008837
:10127000401C00F00F000649088005480088064918
:10128000098888429BD100BFBDE8F081A4070020F7
:101290002E000020B60800202C00002030B50022CF
:1012A0000021274B1B885B1C03F00F02254B1B887A
:1012B0009A4200D130BD037A73B9234C204D2D885A
:1012C000036804EB0514236000231F4C1C4D2D887C
:1012D00004EB051423710DE01B4C194D2D88436858
:1012E00004EB051423600123174C154D2D8804EBE6
:1012F00005142371837A082B07D90823124C104D4B
:101300002D8804EB0514637106E0847A0E4B0C4DB6
:101310002D8803EB05135C7100210BE000F10B033A
:101320005C5C094B064D2D8803EB05139B1D5C543B
:101330004B1CD9B20829F1D3014B1A8000BFB9E781
:101340002C0000202E000020A40700200246D2F826
:10135000B813D2F8B4034078FF281ED091F8423079
:101360004320405C43EA00234420405C43EA0043BE
:101370004520405C43EA006008654620435C5420F9
:1013800043544720435C552043544820435C562037
:101390004354FF23D2F8B40343700020704770B564
:1013A00004460D468121204601F0D6FC032120464B
:1013B00001F0D2FC8221204601F0CEFC002070BD5D
:1013C0002DE9F04104460E4606F07F0000EB400197
:1013D00004F1D00000EBC105D4F8B873A988E8681F
:1013E000B0FBF1F201FB120040B9E86830B1002314
:1013F0001A463146204601F0E3FC01E00120387036
:101400000020BDE8F08100007CB504460D4613497C
:10141000204601F0EFFC1149C91F204601F0EAFC0B
:101420000E491739204601F0E5FC01200C494870AF
:1014300008700020C8640B4903C9CDE900010848C1
:10144000503000990160BDF8041081809DF80610AD
:1014500081710349C4F8B81300207CBDDE35000853
:10146000D80800200038000810B50246D2F8B8337A
:101470000120587001EB410402F50E7000EBC4002E
:101480000069D864002010BD30B502460B46D2F882
:10149000B81300245878042815D007DC78B1012847
:1014A0000ED002280DD0032842D10BE020280BD00B
:1014B000212815D0222839D0232839D137E038E027
:1014C00037E036E035E034E002F50E745D78D2F8AE
:1014D000B4034570D888606101F14200A06028E043
:1014E00002F1D0044231887B0870C8894239C0F3C8
:1014F000072543204554086DC0F307454420455453
:10150000086D050E452045545420455C4620455441
:101510005520455C472045545620455C482045549D
:1015200001F14200A0600720606102E001E000E0FC
:1015300000BF00BF002030BD0448D0F8B80308B990
:10154000002070470148D0F8B803FAE7D001002026
:101550000448006820B103480068401E0149086043
:10156000704700000000002001480068704700003C
:10157000040000204161704701617047F0B50446E6
:1015800016460025002201F00F0501F0100747B1B3
:10159000042E05D145F00305E76B1F43E76300E028
:1015A000354300201EE0012787401F40C7B1226855
:1015B0004FEA800C0F2707FA0CF7BA43870005FAA9
:1015C00007F73A43282904D1012787401F40676164
:1015D00005E0482903D1012787401F402761226089
:1015E000471CB8B20828DED3082022E00127874034
:1015F0001F40E7B16268A0F108074FEA870C0F2788
:1016000007FA0CF7BA43A0F10807BF0005FA07F77D
:101610003A43282904D1012787401F40676105E02C
:10162000482903D1012787401F4027616260471C7A
:10163000B8B21028DAD3F0BDF0B50A460023002472
:101640000021002500F00046B6F1004F02D11D4EEA
:10165000F16901E01B4E7168C0F3034583B200F4E9
:101660004016B6F5401F08D121F0E061154E7668AE
:1016700026F0E066134F7E6012E000F48016B6F5A7
:10168000801F06D1032606FA05F4A14341F0E0616C
:1016900006E0460D360103FA06F6B14341F0E0617B
:1016A00022B1460D360103FA06F6314300F000463A
:1016B000B6F1004F02D1034EF16101E0014E7160BD
:1016C000F0BD00000000014070B505460C4607481B
:1016D0000560204600F00EF800BF044800680028AE
:1016E000FBD1034800F095FC70BD000020000020F5
:1016F000000400401FB50446184800F08AFC012190
:10170000164800F0DDFC022C02D10B20029004E010
:10171000012C02D142F6DF60029011480088ADF83A
:1017200000000020ADF80200ADF80400ADF806009E
:101730008DF80C006946094800F076FC0121074845
:1017400000F0C6FC054800F05FFC0121034800F0F2
:10175000BBFC024800F062FC1FBD0000000400401A
:101760002400002030B50B46002116E00A24B4EB1B
:10177000107F05D9302404EB107403F8114005E004
:10178000412404EB10740A3C03F8114000010025C9
:101790004C00641C1D554C1CE1B29142E6DB30BD8F
:1017A00010B51048006810490968401AC82800D2CE
:1017B00010BD0C4800680C4908600C48007880F0A7
:1017C00001000A4908700846007820B1F021084855
:1017D000FFF7D2FE03E0F0210548FFF7CBFE00BF84
:1017E000E6E7000004000020180000201C00002094
:1017F000000C014010B540F2036000F0F7FA4FF41E
:10180000C06000F0F3FA01210648FFF715FFF0234E
:10181000032210210448FFF7B1FEF0210248FFF730
:10182000A9FE10BD00023000000C014010B51448A4
:10183000006814490968401AFA2800D210BD1048FF
:101840000068104908601048007880F001000E49D7
:1018500008700846007840B1C0210C48FFF78AFEA6
:1018600030210A48FFF788FE07E030210748FFF7DC
:1018700081FEC0210548FFF77FFE00BFDEE70000C4
:10188000040000201000002014000020000C014083
:1018900010B51348006813490968401AB0F5FA7F7B
:1018A00000D210BD0E4800680E490860F0210E48B5
:1018B000FFF760FE0D480078001D012202FA00F1DA
:1018C0000948FFF759FE09480078401C074908708D
:1018D00008460078042801D30020087000BFE0E724
:1018E0000400002008000020000C01400C00002033
:1018F00000F0CAFD00F0E6FEFFF77CFF144A154930
:10190000154801F032FB00F0ACFD00F055FB124829
:1019100001F063F9FFF70EF800F05CF900BF0E4824
:1019200090F8CE000328FAD110E000F073F900F02F
:1019300031F90446012C02D1FFF778FF06E0022CB2
:1019400002D1FFF72DFF01E0FFF7A2FFEDE7000056
:10195000A001002090010020D00100202DE9F04FCF
:1019600004460E4617464048006800F4E060B0F5B3
:10197000A06F0FD006DCB0F5407F0DD0B0F5806FC2
:101980000BD108E0B0F5C06F03D0B0F5E06F04D123
:1019900000BF00BF00BF00BF04E04FF4A06000F034
:1019A00067F800BF00BF00BF2F480068C0F30220E7
:1019B000034618463246BC460146C1F1070ABAF151
:1019C000040F02D94FF0040A01E0C1F1070AD14621
:1019D00001F1040ABAF1070F02D24FF0000A01E048
:1019E000A1F1030AD0464FF0010A0AFA09FAAAF156
:1019F000010A0AEA020A0AFA08FA4FF0010B0BFA86
:101A000008FBABF1010B0BEA0C0B4AEA0B0500BF1C
:101A100021462846002906DB02074FEA126C134ACA
:101A200002F801C00AE002074FEA12680E4A0C32BF
:101A300001F00F0CACF1040C02F80C8000BF204642
:101A400000280DDB00BF00BF00F01F020121914004
:101A50004209920002F1E022C2F8001100BF00BF6B
:101A600000BFBDE8F08F00000CED00E000E400E0F6
:101A700002490143024A1160704700000000FA0564
:101A80000CED00E010B5334B1B68334C2340314C58
:101A9000236023461B6803432360B1F5402F0DD11B
:101AA00030B923461B682D4C23432A4C236005E0A4
:101AB000284B1B682A4C2343264C2360294B1B6868
:101AC00043F00403274C23604FF0E0231B69264CAE
:101AD0002360264B1B686360244B1B1D1B68A3609F
:101AE000224B08331B68E3604FF0E0231B69204C56
:101AF00023404FF0E02423611E4B1C4C80342360B4
:101B00006FF4E063241D2360DB124FF0E024C4F87F
:101B100088310AB930BF02E040BF20BF20BF124B5E
:101B20001B684FF0E02423610F4B5B680F4C236070
:101B30000D4B9B684FF0E024C4F804310A4BDB687E
:101B4000C4F80831074B1B6823F00403054C2360DD
:101B500010BD000000700040FCF3F3FF00080C0013
:101B600000040C0010ED00E0C808002000E100E0D7
:101B7000040001003DF87FFF10B5FFF7F5FC0349B5
:101B8000086001200249087010BD000034000020E8
:101B90003800002010B500240C48007808B9002057
:101BA00010BDFFF7E1FC0A490968441AB4F5967FB5
:101BB00001D20120F4E740F21450844201D2022005
:101BC000EEE700200149087000BFE9E73800002077
:101BD0003400002010B500200849A1F80002A1F847
:101BE0000202074908800749088007490870074929
:101BF000087012210648FEF7E2FA10BDA005002089
:101C00002C0000202E000020300000203100002099
:101C1000A408002010B590B0002400F079FC08B9A9
:101C200010B010BD4021684600F07EFC04462CB187
:101C30002146684600F0A8FCFFF79EFF00F06EFD0D
:101C4000FFF7A3F9FFF7B4FA00BFE9E72DE9F14F79
:101C50008EB000200C905CA090E8004CC068CDE9EC
:101C600005BECDF810A0079058A0D0F804A00068D9
:101C7000CDE9020A0FF2541ADAE9000ACDE9000AA6
:101C800055484068C0F381000D900D9820B101289F
:101C900004D0022863D103E0504B62E0504B60E077
:101CA0004D48406800F48039B9F5803F2FD14A484B
:101CB000C06A00F080400B900B9808B9484A00E0D9
:101CC000484A4548C06A00F480300A900A98B0F546
:101CD000803F12D14048C06AC0F30310401C0890F6
:101CE0003D48C06AC0F30320871C112F00D1142780
:101CF0000898B2FBF0F000FB07F23748C06A00F02A
:101D00000F00401C09900998B2FBF0F200E0364A3F
:101D100031484068C0F383412F48406800F00050CC
:101D200008B141F010012C48406800F0804008B133
:101D300041F020010F2901D2891C06E00F2903D3AD
:101D40003E2901D8491C00E03F2102FB01F30F2985
:101D500004D102EB4200400000EB520301E01F4BB4
:101D600000BF00BF1C484068C0F3031504A8465DCF
:101D700023FA06F418484068C0F3022502A8465D1D
:101D800024FA06FC14484068C0F3C2251DF805601B
:101D900024FA06F80E9830B1012806D0022806D0A1
:101DA00003280AD106E00C9308E00C9406E0CDF875
:101DB00030C003E0CDF8308000E000BF00BF0C98D9
:101DC0000FB0BDE8F08F0000000000000000000030
:101DD00001020304060708090010024000127A00FD
:101DE00040787D01006CDC0200093D00064A02EBF0
:101DF0009011096800F01F0301229A401143024B21
:101E000003EB90121160704700100240044A5168C1
:101E100021F4400141EA0002014B5A607047000082
:101E200000100240F0B504462078062813D00E4872
:101E30000568001D0668001D07683D4455B108226D
:101E4000A11C2846FFF78EFC042204F11201304643
:101E5000FFF788FC06E00549086810B16080010CB6
:101E6000A18000BFF0BD0000E8F7FF1F0021024085
:101E700008B500200021484A126842F48032464BDF
:101E80001A6000BF401C444A126802F4003119B9BC
:101E90004FF6FF729042F5D13F4A126802F40032C9
:101EA0000AB900BFFEE73C4AD26942F080523A4B81
:101EB000DA613A4A126842F44042384B1A60364AB4
:101EC0005268354B5A601A4652685A601A46526830
:101ED00042F480625A601A465268314B1A402E4BC7
:101EE0005A601A4652682F4B1A432B4B5A601A46B7
:101EF000D26A2D4B1A40284BDA621A46D26A2B4B13
:101F00001A43254BDA621A46126842F080621A6060
:101F100000BF214A126802F00062002AF9D01E4A6E
:101F2000126842F080721C4B1A6000BF1A4A126895
:101F300002F00072002AF9D0184A126842F4803286
:101F4000164B1A6000BF154A526802F48032002A0C
:101F5000F9D0124A126842F40032104B1A6000BFE6
:101F60000E4A526802F40032002AF9D00A4A526836
:101F70000092009A22F003020092009A42F00202BC
:101F80000092054B009A5A6000BF034A526802F063
:101F90000802002AF9D008BD00100240007000407D
:101FA000FFFFC39F0000352000F0FEBF490601007F
:101FB00010B5FFF75DFF10BD10B5124800684FF473
:101FC0007A71B0FBF1F4601EB0F1807F01D3012083
:101FD0000FE0601E4FF0E02148610F214FF0FF300D
:101FE000FEF702FA00204FF0E02188610720086127
:101FF000002008B100BFFEE70021481EFEF7F4F9FB
:1020000010BD00003C000020016841F0800101602B
:102010007047016821F0010101607047016841F0DB
:1020200001010160704700000A8882621D4A9042E7
:102030000ED0B0F1804F0BD01B4A904208D01B4A03
:10204000904205D01A4A904202D01A4A90420BD1CF
:10205000026822F07002026002684B881A43026034
:1020600002688B881A4302608A68C262124A9042F0
:102070000AD0124A904207D0026822F440720260ED
:102080000268CB881A430260064A904202D0094A8D
:10209000904201D10A7B0263426942F0010242612F
:1020A00070470000002C0140000400400008004080
:1020B000000C0040003401400010004000140040BB
:1020C000C2688A43C2607047C2680A43C2607047F0
:1020D000CA430261704710B502460020D46804EA82
:1020E000010314690C4014B10BB1012000E0002081
:1020F00010BD30B5AFB004460D460020E0700220A0
:1021000020704FF0A040E060082060700420A070B4
:102110000220207100206071A071BC216846FEF78A
:102120004EF8E0680090E06800F500600190E0681B
:1021300000F580600290E06800F588601E90E0681D
:1021400000F56060BC2269462E902846FEF71EF816
:10215000002013E0E16801F5106101EB401205F188
:102160000C0141F82020E16801F5306101EB4012DB
:1021700005F1240141F82020411CC8B2A178814218
:10218000E8DC002013E0E16801F5A06101EB4012FA
:1021900005F13C0141F82020E16801F5805101EB97
:1021A000003205F17C0141F82020411CC8B2617861
:1021B0008142E8DC00202FB030BD00001FB5069C36
:1021C0009DF80400012818D12068806B20F480302D
:1021D000216888639DF8050028B12068806B40F471
:1021E0008010216888632068C0681649084021680B
:1021F000C860204600F028F820E02068C06840F061
:1022000040002168C860204600F01EF82068806BFE
:1022100040F45020216888632068806B40F40010EF
:10222000216888639DF8050028B12068806B40F420
:10223000801021688863142000F01EF9002004B08B
:1022400010BD0000BFFFDFFF10B504462068006925
:1022500040F001002168086100BF2068006900F0BB
:1022600001000028F9D1032000F09DFC10BD000002
:10227000014A416B0A617047180008600268D26821
:1022800022F0C0420368DA6031B90268D26842F0D5
:1022900080420368DA6007E0012905D10268D2684C
:1022A00042F000520368DA607047000070B50446DF
:1022B00000250021D4F8C80001606069006820F49E
:1022C000C0516069016060690068616908606069A7
:1022D000006820F00301606901606069006840F0F7
:1022E00003016069016080202169486200BF00BF6E
:1022F00009E0404830F81520294604F1100000F0AC
:10230000BDF9681CC5B2042DF3D3102104F11000EF
:1023100000F024FC04F1100000F076F9002160695F
:10232000016160694161491E6069816100216069E4
:10233000C16100254FE004F11C0050F82500006841
:1023400000F0004060B104F11C0050F82500006866
:1023500040F0904104F11C0050F82500016005E0B8
:10236000002104F11C0050F825000160002104F157
:102370001C0050F825000161FF2104F11C0050F8F9
:102380002500816004F1340050F82500006800F059
:10239000004060B104F1340050F82500006840F0BE
:1023A000904104F1340050F82500016005E000215F
:1023B00004F1340050F825000160002104F13400DC
:1023C00050F825000161FF2104F1340050F8250088
:1023D0008160681CC5B2A078A842ACDC6069006965
:1023E00040F0100160690161204600F005F800200E
:1023F00070BD00008400002001464FF0FF300A69E4
:1024000050606FF080400A69506109480A69906124
:10241000C87828B90869806940F010000A6990619D
:1024200008698069034A10430A6990610020704777
:102430000008008008303C0030B502460020556995
:102440002B6955696C6B24FA01F505F0010543EA27
:10245000C51302F11C0555F82150AD6805EA0300CB
:1024600030BD10B54FF4A060FFF702FB002202213F
:102470004320FFF773FA10BD10B504460121204632
:10248000FFF722F910BD000010B50020FFF7DEFBBA
:1024900004461948844207D14FF480001749086068
:1024A0000320174908801EE01648844206D1002008
:1024B0001249086005201249088014E0124884423D
:1024C00007D14FF440000D49086007200C490880EF
:1024D00009E00E48844206D14FF400000749086025
:1024E00009200749088005480068FFF78FFC40F283
:1024F0000C50FFF77BFC10BD006CDC0228000020B4
:102500002400002000A24A0400D8B805000E2707C6
:10251000044890F8CE00032801D101207047002024
:10252000FCE70000D00100202DE9F04105460E46F1
:10253000FFF702F80446002704B115B90020BDE8F2
:10254000F081607801280FD1E06C68B1E06CB04296
:1025500001D9304602E0B4F84C0080B207463A4652
:10256000A11C2846FDF712FE6078012808D1002042
:102570006070E0644023A21C0321024800F006FCC6
:102580003846DCE7D001002070B502460020002369
:1025900000BF15E00C4CB4F80042641CC4F30803FF
:1025A000094CB4F802429C4200D10BE0145C064D89
:1025B000B5F80052044E74553446A4F80032401C5D
:1025C0008842E7D300BF70BDA005002001460D483A
:1025D000B0F800020B4AB2F80222904201D100206A
:1025E00070470848B0F80202064A105C08701046AE
:1025F000B0F80202401CC0F30800A2F80202012059
:10260000EEE70000A005002010B504461020216868
:10261000086100BF2068006900F010000028F9D1AF
:10262000032000F0C0FA002010BD70B50346D01C96
:102630008508DC6F02E020680860091D281EA5F1EE
:102640000105F8D1084670BD70B504460D46FEF789
:1026500073FF06460EB104B105B970BD307800B9FC
:10266000FBE7002030702B4622468121024800F013
:10267000A7FB00BFF1E70000D001002070B51346B2
:102680000468626A21B942EA03440568AC6218E052
:102690000468A46A02EB1442002408E0056805F50A
:1026A000827555F8245002EB1542651CECB24D1EA4
:1026B000A542F3D842EA0346046804F5827444F85C
:1026C000256070BD10B54FF4A060FFF7D1F900226E
:1026D00001211D20FFF742F940F20170FFF786FB50
:1026E00010BD000010B501210A48FFF7F4FC78B1D5
:1026F00001210848FFF7ECFC0748006828B10648AC
:102700000068401E0449086002E00248FFF781FCAF
:1027100010BD00000004004020000020F8B500209B
:102720000090002500260024002781E0444800781E
:1027300030B1012810D0022824D0032873D134E00E
:102740009DF80000AA2806D19DF800003D490870B8
:1027500001203B4908706AE09DF80000552809D126
:102760009DF8000037494870022037490870344905
:10277000087006E09DF80000AA2802D00020304929
:10278000087054E09DF800002E492F4A12788854B2
:102790002D480078401C2C49087008460078112804
:1027A00002D303202649087041E09DF80000EE287E
:1027B00034D19DF80000234948740025022405E027
:1027C0002048005D2844C5B2601CC4B20F2CF7D964
:1027D0001C48007CA84221D11A48C078000619493B
:1027E000097940EA01401749497940EA0120154931
:1027F000897940EA01071348C679082E00D90826CE
:1028000010488078022801D1012000E00020014614
:1028100033460C4A08323846FEF70CF900200849C6
:10282000087004E0FFE700200549087000BF00BF02
:102830006846FFF7CBFE00287FF478AFF8BD0000B4
:1028400031000020A408002030000020F0B502462E
:102850000C460021002550698068C0F341062078AD
:1028600000F00F032078C00938B102F11C0050F8C5
:102870002310012000FA03F508E002F1340050F8BB
:10288000231003F11000012707FA00F5086800F48F
:102890000040C8B90868104F384008602BB9086874
:1028A0000E4FBF5D3843086003E00868A7883843CF
:1028B00008606078800440EA835040F0805040F423
:1028C00000400F68384308605069C0692843576961
:1028D000F8610020F0BD000000F833FC5835000816
:1028E00010B503460022087800F00F040878C009EC
:1028F00020B103F11C0050F8242003E003F1340060
:1029000050F82420106820F4001010604878032844
:1029100002D04878022803D1106840F0805010603F
:10292000002010BD30B502460B460024187800F098
:102930000F011878C00978B1012000FA01F402F102
:102940001C0050F82100006820F4004502F11C0032
:1029500050F82100056010E001F11000012505FA92
:1029600000F402F1340050F82100006820F4004522
:1029700002F1340050F8210005605069C069A0439D
:102980005569E861002030BD2DE9FC4105460C4643
:102990000027207800F00F0605F11C0050F82600F3
:1029A0000068019005F11C0050F8260000690090B5
:1029B000009800F060400090E06820B9009840F472
:1029C0000020009022E066B9A188E068884201D228
:1029D000E06800E0A088E060009840F400200090EB
:1029E00009E0E068401EA1880844B0FBF1F00099BE
:1029F00041EAC0400090E068009908430090607888
:102A0000012803D1009840F00050009005F11C000F
:102A100050F8260000990161607801280DD168699D
:102A20008068C0F3002020B1019840F080500190F0
:102A300003E0019840F000500190019840F00440FC
:102A4000019005F11C0050F8260001990160E8781A
:102A5000A0B96078012809D0E06878B16869406B56
:102A60000121B14008436969486307E0A08983B246
:102A7000324605F11000A16800F084F83846BDE840
:102A8000FC81F0B503460026087800F00F0403F13E
:102A9000340050F82400056803F1340050F8240095
:102AA000026902F06042C86800B124B98888024314
:102AB00042F400220CE0B1F804C0CF6867447F1EE6
:102AC000B7FBFCF042EAC0428F8847433A4300BF5D
:102AD00003F1340050F8240002614878012806D13F
:102AE000C87810B145F0005501E045F0805545F03B
:102AF000044503F1340050F8240005603046F0BD71
:102B000010B502460B460021187800F00F04187823
:102B1000C00960B102F11C0050F82410086800F0F0
:102B2000004040B1086840F08040086003E002F1D6
:102B3000340050F82410086840F4001008600020A9
:102B400010BD10B5FEF7F8FC04460CB9012010BD0D
:102B5000207808B90120FAE70020F8E770B50446AC
:102B60000D46202040EA85102168086100BF2068DA
:102B7000006900F020000028F9D1032000F013F8CC
:102B8000002070BDF0B50446D81C860804F17C0016
:102B900050F8225002E008682860091D301EA6F196
:102BA0000106F8D1F0BD10B5044602212046FEF71B
:102BB0008BFD10BD70B504460D46CE20005D032888
:102BC00009D12879012806D8D4F8B4032946C26867
:102BD0002046904770BD0120FCE710B5044600BFB9
:102BE0006069406820F002016069416000BF032015
:102BF000FFF742FC10BD70B5044604F50E750021C8
:102C000020466B69AA6800F0C1F8A9886869884203
:102C100003D9032184F8AC1302E0042184F8AC1337
:102C2000002070BD70B5044604F1D0050021204697
:102C30006B69AA6800F0C4F8A9886869884203D95A
:102C4000012184F8AC1302E0022184F8AC130020C7
:102C500070BD10B50446062184F8AC1300231A4653
:102C60001946204600F092F82046FFF701FB0020AD
:102C700010BD10B50446052184F8AC1300231A4694
:102C80001946204600F09CF82046FFF7F1FA002094
:102C900010BD10B5044600BF6069406840F00201F5
:102CA0006069416000BF0320FFF7E6FB10BD2DE91E
:102CB000F04106460F4607EB470106F1D00000EB56
:102CC000C104D4E90301451AA088A84200D2A5880E
:102CD000E81C4FEA900821E0D4E90301451AA088D6
:102CE000A84200D2A588E81C4FEA9008ABB2FAB21D
:102CF00006F11000A168FFF745FFA0682844A06016
:102D0000206928442061D4E90310884206D1706903
:102D1000406B0121B94088437169486306F11C008A
:102D200050F82700806980B2404503D3D4E90310EE
:102D30008842D1D30120BDE8F08170B504460D462C
:102D40008021204600F08EF80021204600F08AF80D
:102D50002046FFF78DFA70BD70B505460C46E011B0
:102D600040B104F07F0000EB400105F1D00000EB22
:102D7000C10605E004EB440105F50E7000EBC10649
:102D800031462846FFF7CEFD002070BD2DE9F04109
:102D900005460E461746984606F07F0000EB4001B8
:102DA00005F50E7000EBC104A760C4F80C8000208C
:102DB000206121462846FFF764FE0020BDE8F0812F
:102DC0002DE9F04105460E461746984606F07F006D
:102DD00000EB400105F1D00000EBC104A760C4F88E
:102DE0000C800020206121462846FFF7CDFD002001
:102DF000BDE8F0812DE9F04107460E46B578B08870
:102E0000C0F30A08E81168B105F07F0000EB40014B
:102E100007F1D00000EBC104207820F08000803062
:102E2000207009E005EB450107F50E7000EBC104C9
:102E3000207820F080002070207865F30300207057
:102E4000A4F80480F07800F00300054911F8200090
:102E5000607021463846FFF7F9FC0020BDE8F0819C
:102E60004835000870B505460C460026E01140B113
:102E700004F07F0000EB400105F1D00000EBC1063B
:102E800005E004EB440105F50E7000EBC1060120DE
:102E9000B07031462846FFF733FE002070BD70B594
:102EA00005460C460026E01140B104F07F0000EB1F
:102EB000400105F1D00000EBC10605E004EB440140
:102EC00005F50E7000EBC1060020B07031462846B3
:102ED000FFF706FD002070BD70B504460E46002EBB
:102EE00033D104F1D00594F8AC03012802D00228B4
:102EF00028D107E0A9886869401A68612046FFF771
:102F000091FE20E094F8AD0348B100231A4619461B
:102F10002046FFF755FF002184F8AD1311E0CE20C5
:102F2000005D032808D1D4F8B403406920B1D4F877
:102F3000B403416920468847002068612046FFF7B6
:102F400088FE00E000BF00BF0DE0CE20005D03283A
:102F500009D1D4F8B403C06928B1D4F8B403314618
:102F6000C26920469047002070BDF8B504460D4662
:102F70001646C4F8B053C4F8B463D4F8B013C968A3
:102F8000C868FEF74FFFD4F8B0034068C079C0F3BB
:102F9000801184F8A01304F110012046FFF7A9F86E
:102FA00000BF2069806820F001002169886000BFAF
:102FB00004F11000009094E80F00FFF7FFF820469E
:102FC000FFF767FE002104F11000FFF757F92046D4
:102FD000FFF76CF900BF2069806840F001002169AB
:102FE000886000BF2046FFF7F8FD0121CE20015583
:102FF000F8BD0000014648698068C0F34102486995
:10300000406820F48073486943604869406840F430
:103010008073486943600869C06820F470500B6988
:10302000D8600D48805C032807D108700869C06823
:1030300040F410500B69D86007E00220087008695E
:10304000C06840F4A0500B69D8604FF400500B6981
:1030500058610120704700005C350008F8B504464F
:103060000026002500BF616988696169C969084057
:1030700000F03F010E4627E006F0010008B32946A4
:103080002046FFF7D9F90090009800F0010048B100
:10309000012104F11C0050F82500816029462046DA
:1030A000FFF71AFF009800F0800048B1294620463B
:1030B000FFF7FDFD802104F11C0050F82500816020
:1030C00000BF7608681CC5B2002ED5D10120F8BD1E
:1030D000F8B504460026002500BF6169886961696A
:1030E000C9690840C0F305410E462CE006F0010016
:1030F00030B300BF04F1340151F8251088686169CC
:103100004969084000BF0090009800F0010048B1F4
:10311000012104F1340050F8250081602946204641
:1031200000F083F9009800F0080040B1204600F05C
:10313000B7F9082104F1340050F82500816000BF80
:103140007608681CC5B2002ED0D10120F8BD000061
:1031500030B58DB004466069406820F001016069B7
:103160004160002104F11000FFF7F8FC00250BE09E
:10317000FF2104F11C0050F82500816004F13400A7
:1031800050F8250081606D1CA078A842F0D84FF05F
:10319000FF31606981614FF001116069C1610921EE
:1031A000606941610121606901616069006820F422
:1031B000FE61606901602046FFF75AF84FF48050C5
:1031C00021694861182107A8FCF7F9FF1822144962
:1031D00007A8FCF7DBFF182207A904F50E70FCF71F
:1031E000D5FF04F50E712046FFF730FB182101A82A
:1031F000FCF7E5FF18220B4901A8FCF7C7FF1822CE
:1032000001A904F1D000FCF7C1FF04F1D001204670
:10321000FFF71CFB0121CE20015501200DB030BD70
:1032200060350008783500082DE9F843044600258C
:1032300000270026002000902069806920F01000FF
:10324000216988612069006A0090009800F00F08E9
:1032500008EB480104F50E7000EBC1050098C0F3BF
:103260000A160098C0F3C1370098C0F343400728FE
:1032700028D2DFE800F0270405131427150022E008
:103280005EB1B2B204F11000A968FFF7CEF9A868E8
:103290003044A86028693044286114E013E012E04B
:1032A000287800F00F0060B9082E0AD14FB9B2B2E9
:1032B00004F5697104F11000FFF7B7F9286930448B
:1032C000286100E000BF00BF2069806940F0100065
:1032D000216988610120BDE8F8833EB50446A079E4
:1032E00002906069806800F001000190CE20005DCE
:1032F000032801D1012000E000200090CE20015DD4
:10330000CF2001550421CE2001559DF8080090B131
:103310009DF8040078B19DF8000060B1D4F8C800B1
:10332000006840F00301D4F8C80001600022114693
:103330000120FEF7A7FB4FF40060216948610120DE
:103340003EBD70B504462069406900F001000028C8
:1033500069D12069456920698069054005B970BD5A
:1033600005F4002010B12046FFF7B2FE05F48020DE
:1033700010B12046FFF772FE05F4006010B1204640
:10338000FFF7ABFF05F0004058B1CE20005D0428E8
:1033900003D1CF20015DCE2001554FF000402169BF
:1033A000486105F0080058B1D4F8B403406A20B170
:1033B000D4F8B403416A204688470820216948614F
:1033C00005F0100010B12046FFF72EFF05F48050E5
:1033D00010B12046FFF7BCFE05F4005010B12046A6
:1033E000FFF708FE05F4801060B1D4F8B403806ADA
:1033F00020B1D4F8B403816A204688474FF4801086
:103400002169486105F4001060B1D4F8B403C06AC2
:1034100020B1D4F8B403C16A204688474FF40010A5
:103420002169486100BF00BF99E770B504460E46A8
:1034300036BB04F50E7594F8AC03032802D00428BB
:103440001BD107E0A9886869401A68612046FFF728
:10345000D2FB13E0CE20005D032808D1D4F8B403DA
:10346000806920B1D4F8B4038169204688470020E0
:1034700068612046FFF7FDFB00E000BF00BF0DE0E4
:10348000D4F8B403006A48B1CE20005D032805D10A
:10349000D4F8B4033146026A20469047002070BD3C
:1034A0007CB50446012504F55370C16D806DCDE9EE
:1034B00000019DF8000000F0600020B1202808D035
:1034C000402812D10BE06946204600F02BF8054653
:1034D0000CE069462046FFF76DFB054606E06946AD
:1034E000204600F02DF8054600E000BF00BF9DB962
:1034F000BDF8060018B92046FFF7BBFB10E09DF8A9
:10350000000000F0800018B12046FFF78BFB07E0B9
:103510002046FFF770FB03E069462046FFF70DFCED
:1035200000207CBD70B505460C466078034951F813
:10353000202021462846904770BD00004000002012
:10354000024600207047000000000000010000005B
:10355000020000000300000000000300030201025B
:10356000000000004000000000000000000000001B
:10357000000000000000000080000000400000008B
:10358000000000000000000000000000000000003B
:103590001201000202000040E9288A010001010234
:1035A0000301090243000201008032090400000106
:1035B0000202010005240010010524010001042479
:1035C000020205240600010705820308000A090417
:1035D0000100020A00000007050302400000070581
:1035E00081024000000403090416034700690067D4
:1035F000006100440065007600690063006500001A
:1036000000000000000000000000000000000000BA
:1036100000000000000000000000000000000000AA
:10362000000000000000000000000000000000009A
:10363000000000000000000000000000000000008A
:10364000000000000000000000000000000000007A
:10365000000000000000000000000000000000006A
:10366000000000000000000000000000000000005A
:10367000000000000000000000000000000000004A
:10368000000000000000000000000000000000003A
:10369000000000000000000000000000000000002A
:1036A000000000000000000000000000000000001A
:1036B000000000000000000000000000000000000A
:1036C00000000000000000000000000000000000FA
:1036D00000000000000000000000000000000000EA
:1036E00000000000000000000000001A0347004432
:1036F00000330032002D004300440043005F0041CE
:103700000043004D00000000000000000000000029
:1037100000000000000000000000000000000000A9
:103720000000000000000000000000000000000099
:103730000000000000000000000000000000000089
:103740000000000000000000000000000000000079
:103750000000000000000000000000000000000069
:103760000000000000000000000000000000000059
:103770000000000000000000000000000000000049
:103780000000000000000000000000000000000039
:103790000000000000000000000000000000000029
:1037A0000000000000000000000000000000000019
:1037B0000000000000000000000000000000000009
:1037C00000000000000000000000000000000000F9
:1037D00000000000000000000000000000000000E9
:1037E00000000000000000000000000000000000D9
:1037F000E5350008E9350008EB3600088C000020AC
:1038000000C2010000000800283800080000002065
:10381000D0010000F801000894380008D001002011
:10382000600B0000200400080124021809160E276E
:1038300007950614089504140851074C086F0808EA
:103840001A57041349051B0869101A09081AB510FC
:103850001A59281AD710131B091B0881301A5F0444
:103860001A210C413A40022103FF1A03311390350B
:103870001B08A2044113F0373308FF13091414087E
:103880009F131B088908811A4D101AC1049A6914E4
:0438900041000000F3
:04000005080001519D
:00000001FF
