:020000040800F2
:100000009004002049010008CB010008C30100084A
:10001000C7010008BD0100084D03000800000000F2
:10002000000000000000000000000000F7010008D0
:10003000C101000800000000F5010008F9010008F6
:100040006301000863010008630100086301000800
:1000500063010008630100086301000863010008F0
:1000600063010008630100086301000863010008E0
:1000700063010008630100086301000863010008D0
:1000800063010008630100086301000863010008C0
:1000900063010008630100086301000863010008B0
:1000A00063010008630100086301000863010008A0
:1000B0006301000863010008630100086301000890
:1000C0006301000863010008630100086301000880
:1000D0006301000863010008630100086301000870
:1000E0006301000863010008630100086301000860
:1000F0006301000863010008630100086301000850
:10010000630100086301000863010008630100083F
:10011000630100086301000863010008630100082F
:10012000630100086301000863010008630100081F
:10013000DFF810D000F030F800480047AD090008A3
:10014000AFF300809004002006488047064800472F
:10015000FEE7FEE7FEE7FEE7FEE7FEE7FEE7FEE777
:10016000FEE7FEE7050200083101000830B50B4646
:10017000014600202022012409E021FA02F59D42D7
:1001800005D303FA02F5491B04FA02F52844151EAB
:10019000A2F10102F1DC30BD064C074D06E0E0683B
:1001A00040F0010394E8070098471034AC42F6D3BE
:1001B000FFF7C2FFA8100008C810000800BFFEE744
:1001C000704700BFFEE700BFFEE7704710B500288C
:1001D00007DA0A07140E054A00F00F031B1FD45458
:1001E00003E00A07130E024A135410BD18ED00E095
:1001F00000E400E07047704710B500F0B9FB00F074
:1002000089F910BD1CB54E48006840F470004C4997
:1002100008604C48006840F001004A49086000BF8F
:100220004848006800F002000028F9D045484068BE
:1002300000F00C00082866D100BF0020019002E009
:100240000198401C019001985028F9D33D4840681E
:100250000090009820F0F0000090009840F080009E
:1002600000903849009848600020019002E0019811
:10027000401C019001985028F9D332484068009002
:10028000009820F0F0000090009840F0900000905E
:100290002C49009848600020019002E00198401C21
:1002A000019001985028F9D32648406800900098A2
:1002B00020F0F0000090009840F0A000009021494C
:1002C000009848600020019002E00198401C0190D5
:1002D00001985028F9D31B4840680090009820F0FE
:1002E000F0000090009840F0B00000901549009890
:1002F00048600020019002E00198401C01900198A4
:100300005028F9D300BF0F48406820F003000D4982
:100310004860C82000F0E6F80A4800680A4908402A
:10032000084908604FF41F0088600846006820F400
:100330008020086000204860C86200F0CBFD1CBD32
:1003400088ED00E000100240FFFFF6FE00BFFEE770
:100350000FB4054B10B503A9044A029800F018F831
:1003600010BC5DF814FB0000F50500088C000020AF
:1003700002E008C8121F08C1002AFAD1704770476E
:10038000002001E001C1121F002AFBD170470000CC
:100390002DE9FF4F89B09B460446002506E025283D
:1003A0000BD05A460B999047641C6D1C207800288E
:1003B000F5D10DB02846BDE8F08F0027B8460122E0
:1003C000474900E0074314F8013F203B02FA03F0DD
:1003D0000842F7D120782E2819D114F8010F47F0E0
:1003E00004072A280ED06FF02F022078A0F13001E8
:1003F00009290CD808EB880102EB410100EB010848
:10040000641CF2E70A98641C50F8048B0A90207868
:100410000028CED0642808D0692806D075281ED0C0
:100420005A460B9990476D1C58E00A994FF00A09FB
:1004300001C90A91002802DA40422D2102E0390563
:1004400004D52B218DF82010012103E0F90704D0F9
:100450002021F7E78A4608AE0DE00021FAE70A9965
:100460004FF00A0901C90A91F7E74946FFF77EFEF6
:10047000303106F8011D0028F7D1ADEB060000F180
:100480002009780701D44FF00108C84502DDA8EB28
:10049000090000E000208046002706E008A85A4630
:1004A000C05D0B9990476D1C7F1C5745F6DB04E03F
:1004B00030205A460B9990476D1CB8F10001A8F105
:1004C0000108F5DC05E016F8010B5A460B99904738
:1004D0006D1CB9F10001A9F10109F4DC641C65E7A8
:1004E0000928010008B50021009102E00099491C8B
:1004F000009100EB8001009AB2EB410FF6D308BDEA
:100500000349086000BF024909680029FBD1704710
:10051000040000200448006820B103480068401E21
:1005200001490860704700000400002010B52D4B01
:100530001B6883432B4C2360231D1B688343241DAE
:100540002360231D1B688343241D2360231D1B6818
:100550008343241D236011B101290ED105E0214BF5
:100560001B6803431F4C236008E01E4B1B1D1B68C8
:1005700003431C4C241D236000E000BF00BF32B1C8
:10058000012A11D0022A1CD0032A27D127E0154BBB
:1005900008331B680343134C08342360231D1B6876
:1005A0008343241D23601BE00E4B08331B688343E9
:1005B0000C4C08342360231D1B680343241D236057
:1005C0000EE0084B08331B680343064C08342360D5
:1005D000231D1B680343241D236001E000BF00BFEF
:1005E00000BF10BD000401400149086070470000D1
:1005F0001404014070B504460D46E1B2054800F010
:10060000DDFC00BF0721034800F029FD0028F9D0D8
:10061000204670BD003801404FF0032070470000B5
:1006200070B5054600241D48854200D103E01C48F2
:10063000854200D101241B4931F8140000F080FBF1
:10064000194931F8140000F07BFB184951F82430A7
:10065000174951F824000322182100F023F9154905
:1006600051F82430124951F824000322042100F0EB
:1006700019F9284600F0A6FC4FF4E131284600F0B5
:1006800055FC0421284600F0FAFC0821284600F019
:1006900000FD284600F0DEFC70BD0000003801407F
:1006A00000440040480000202C00002030000020C2
:1006B000400000203800002070B504460D46174960
:1006C00031F8140000F03CFB4FF4C06000F038FB40
:1006D000134951F82430134951F82400032204210E
:1006E00000F0E0F8012D17D10F4908570022022130
:1006F00000F0ECF90D4A115D0D4A105D00F086F82E
:100700000C4951F8240001220021FFF70FFF09498D
:1007100051F82400FFF768FF70BD00006C00002056
:10072000600000205400002086000020830000208C
:10073000800000207400002010B50446044A52F8DE
:100740002410044A52F8240000F00AF910BD0000F9
:10075000600000205400002010B504460B4931F819
:10076000140000F0EDFA0A4951F82430094951F813
:1007700024000322102100F095F8054850F82400C9
:10078000044951F82410486110BD00004C000020BD
:100790001C0000200C000020034951F82010034ADF
:1007A00052F82020516170471C0000200C000020EE
:1007B000034951F82010034A52F820201161704774
:1007C0001C0000200C00002070B504460A4A52F8B4
:1007D00024100A4A52F8240000F0C2F8C0F10100C7
:1007E000C5B2054A52F82410044A52F824002A4699
:1007F00000F006F870BD00001C0000200C00002076
:100800000AB1016100E041617047000010B50022AB
:100810008B071C0F0F2303FA04F204290EDA204B76
:100820009B6893431E4CA36023469B688C07240F50
:1008300000FA04F423431A4CA3602FE008290EDACF
:10084000174BDB689343164CE3602346DB688C0749
:10085000240F00FA04F42343114CE3601EE00C293A
:100860000EDA0F4B1B6993430D4C236123461B6922
:100870008C07240F00FA04F42343094C23610DE094
:10088000074B5B699343064C636123465B698C07A6
:10089000240F00FA04F42343014C636110BD0000EF
:1008A00000000140F0B5044616460025002201F084
:1008B0000F0501F0100747B1042E05D145F00305DF
:1008C000E76B1F43E76300E0354300201EE001278C
:1008D00087401F40C7B122684FEA800C0F2707FAF4
:1008E0000CF7BA43870005FA07F73A43282904D1E1
:1008F000012787401F40676105E0482903D1012790
:1009000087401F4027612260471CB8B20828DED309
:10091000082022E0012787401F40E7B16268A0F16C
:1009200008074FEA870C0F2707FA0CF7BA43A0F124
:100930000807BF0005FA07F73A43282904D1012721
:1009400087401F40676105E0482903D101278740A0
:100950001F4027616260471CB8B21028DAD3F0BD8F
:10096000024693680B400BB1012000E00020704765
:1009700010B50D48006888B10B480068B0F5FA7FE3
:1009800003D20020FFF714FF02E00020FFF704FF6E
:1009900005480068401E0449086003E04FF47A707F
:1009A0000149086010BD00000000002000244FF441
:1009B000000000F0F5F900F091FA0020FFF7CCFEFE
:1009C0000120FFF7C9FE0220FFF7C6FE2248FFF70D
:1009D00027FE00210846FFF76FFE002000F004F913
:1009E000054629461DA0FFF7B3FC012000F0FCF8E6
:1009F000054629461DA0FFF7ABFC022000F0F4F8E5
:100A0000054629461DA0FFF7A3FC032000F0ECF8E3
:100A1000054629461DA0FFF79BFCFFF7FDFD044698
:100A2000210EC4F30723C4F307421CA0FFF790FC78
:100A300010E00020FFF780FE60B90120FFF7B8FE4C
:100A40004FF4FA70FFF75CFD0120FFF7A5FE0220CE
:100A5000FFF7BAFEEDE70000003801400D0A434BF6
:100A60005F53595320697320256400000D0A434BDE
:100A70005F41484220697320256400000D0A434B02
:100A80005F41504231206973202564000D0A434BB9
:100A90005F41504232206973202564000D0A4744AB
:100AA0003332463330782073657269657320666926
:100AB000726D776172652076657273696F6E3A2028
:100AC0005625642E25642E25640000002DE9F04F84
:100AD00003460E4617463D48006800F4E060B0F556
:100AE000A06F0FD006DCB0F5407F0DD0B0F5806F61
:100AF0000BD108E0B0F5C06F03D0B0F5E06F04D1C2
:100B000000BF00BF00BF00BF04E04FF4A06000F0D2
:100B100061F800BF00BF00BF2C480068C0F302208E
:100B2000044620463246BC460146C1F1070ABAF1E6
:100B3000040F02D94FF0040A01E0C1F1070AD146BF
:100B400001F1040ABAF1070F02D24FF0000A01E0E6
:100B5000A1F1030AD0464FF0010A0AFA09FAAAF1F4
:100B6000010A0AEA020A0AFA08FA4FF0010B0BFA24
:100B700008FBABF1010B0BEA0C0B4AEA0B0500BFBB
:100B80001946284600290BDA02074FEA12680F4A75
:100B90000C3201F00F0CACF1040C02F80C8005E0F3
:100BA00002074FEA126C0A4A02F801C000BF00BFF8
:100BB00003F01F01012088405909890001F1E0215B
:100BC000C1F8000100BFBDE8F08F00000CED00E0AF
:100BD00000E400E002490143024A1160704700004E
:100BE0000000FA050CED00E02DE9F04F8CB007464F
:100BF00000200A904AA090E8004CC068CDE905BEEC
:100C0000CDF810A007900FF21C1ADAE9000ACDE91E
:100C1000020A0FF2101ADAE9000ACDE9000A444884
:100C20004068C0F381000B900B9820B1012804D0DC
:100C300002283FD103E03F4A3EE03E4A3CE03C48C8
:100C4000406800F4803CBCF5803F12D13848C06A4F
:100C500000F08048B8F1000F01D1364B00E0364B70
:100C60003348406800F40039B9F5003F02D15B0811
:100C700000E0324B2E484068C0F383412C48406866
:100C800000F0006008B141F010012948406800F010
:100C9000804008B141F020010F2901D2891C06E0F3
:100CA0000F2903D33E2901D8491C00E03F2103FB53
:100CB00001F201E01F4A00BF00BF1D484068C0F3B9
:100CC000031504A8465D22FA06F419484068C0F3EB
:100CD000022502A8465D24FA06F0099014484068EF
:100CE000C0F3C2251DF8056024FA06F0089037B15C
:100CF000012F06D0022F06D0032F0AD106E00A9258
:100D000008E00A9406E009980A9003E008980A901F
:100D100000E000BF00BF0A980CB0BDE8F08F0000F3
:100D2000000000000000000001020304060708099B
:100D30000010024000127A00006CDC0200093D0045
:100D4000064A02EB9011096800F01F0301229A4045
:100D50001143024B03EB90121160704700100240E8
:100D6000064A02EB9011096800F01F0301229A4025
:100D70009143024B03EB9012116070470010024048
:100D8000064A02EB9011096800F01F0301229A4005
:100D90001143024B03EB90121160704700100240A8
:100DA000044A516821F4400141EA0002014B5A60B3
:100DB000704700000010024008B500200021414AA1
:100DC000126842F480323F4B1A6000BF401C3D4A1B
:100DD000126802F4003119B94FF6FF729042F5D152
:100DE000384A126802F400320AB900BFFEE7354AF9
:100DF000D26942F08052334BDA61334A126842F4CE
:100E00004042314B1A602F4A52682E4B5A601A46A4
:100E100052685A601A46526842F480625A601A4612
:100E2000526822F440325A601A46526842F4403204
:100E30005A601A465268254B1A40224B5A601A468D
:100E40005268234B1A431F4B5A601A46126842F0ED
:100E500080721A6000BF1B4A126802F00072002AFA
:100E6000F9D0194A126842F48032174B1A6000BF59
:100E7000154A526802F48032002AF9D0124A1268E8
:100E800042F40032104B1A6000BF0F4A526802F45D
:100E90000032002AF9D00B4A52680092009A22F0E0
:100EA00003020092009A42F002020092054B009A5F
:100EB0005A6000BF034A526802F00802002AF9D0C3
:100EC00008BD00000010024000700040FFFFC3B7E3
:100ED0000000340810B5FFF76FFF10BD10B51248C1
:100EE00000684FF47A71B0FBF1F4601EB0F1807FBE
:100EF00001D301200FE0601E4FF0E02148610F2177
:100F00004FF0FF30FFF762F900204FF0E0218861D9
:100F100007200861002008B100BFFEE70021481E3D
:100F2000FFF754F910BD0000080000202DE9F0473C
:100F300004460D460027B846B94600261D49601AEA
:100F40008C421CD006DC1C48204470B1B0F5806F88
:100F50001FD10FE0B0F5806F16D0B0F56C4F18D1EF
:100F60000320FFF741FE074614E00220FFF73CFE96
:100F700007460FE00220FFF737FE07460AE002208F
:100F8000FFF732FE074605E00220FFF72DFE074679
:100F900000E000BF00BF07EB5500B0FBF5F64FF6D1
:100FA000F07006EA000806F00F0948EA0900A060A0
:100FB000BDE8F087004C004000BCFFBFC1F3080251
:100FC0004260704710B504462049601A8C4228D010
:100FD00006DC1F48204490B1B0F5806F33D117E094
:100FE000B0F5806F26D0B0F56C4F2CD140F20E30AA
:100FF000FFF7C6FE40F20E30FFF7B2FE24E040F2EB
:101000001140FFF7BDFE40F21140FFF7A9FE1BE0C3
:1010100040F21240FFF7B4FE40F21240FFF7A0FE8C
:1010200012E040F21340FFF7ABFE40F21340FFF72F
:1010300097FE09E040F21440FFF7A2FE40F2144090
:10104000FFF78EFE00E000BF00BF10BD004C004067
:1010500000BCFFBFC16841F40051C160704730B5AA
:101060000246002002EB91131B6801F01F050124CA
:10107000AC4023400BB1012000E0002030BDC2682D
:1010800022F00402C260C26801F004031A43C26085
:101090007047C26822F00802C260C26801F008030B
:1010A0001A43C26070470000C8100008000000200A
:1010B0009000000070030008581100089000002004
:1010C0000004000080030008000000000000000091
:1010D000000E2707001001400010014000180140D9
:1010E00000180140010000000400000001000000A1
:1010F000020000000E0611070002000004000000BC
:101100000004000008000000000801400008014041
:10111000020602060406040606060606000801404A
:1011200000100140000C0140010000000020000000
:101130000040000002060406030600000100000053
:101140000020000000400000000201000D0E0628F3
:0811500028000000000000006F
:0400000508000131BD
:00000001FF
