:020000040800F2
:10000000880D002049010008C3020008BB02000857
:10001000BF020008AD0200084D0400080000000007
:10002000000000000000000000000000EF020008D7
:10003000B902000800000000ED020008F10200080B
:100040006301000863010008630100086301000800
:1000500063010008630100086301000863010008F0
:1000600063010008630100086301000863010008E0
:1000700063010008630100086301000863010008D0
:1000800063010008630100086301000863010008C0
:1000900041040008B1020008630100086301000880
:1000A00063010008630100086301000863010008A0
:1000B0006301000863010008630100086301000890
:1000C0006301000863010008630100086301000880
:1000D0006301000863010008630100086301000870
:1000E0006301000863010008630100086301000860
:1000F0006301000863010008630100086301000850
:10010000630100086301000863010008630100083F
:10011000630100086301000863010008630100082F
:10012000630100086301000863010008630100081F
:10013000DFF810D000F05EF8004800470921000801
:10014000AFF30080880D002006488047064800472E
:10015000FEE7FEE7FEE7FEE7FEE7FEE7FEE7FEE777
:10016000FEE7FEE7F90200083101000840EA01035A
:100170009B0703D009E008C9121F08C0042AFAD25D
:1001800003E011F8013B00F8013B521EF9D2704721
:100190002DE9F05F0546002092469B4688460646BC
:1001A000814640241BE0284641464746224600F04F
:1001B00042F853465A46C01A914110D31146184688
:1001C000224600F029F82D1A67EB01084F46224617
:1001D0000120002100F020F817EB00094E41201EFD
:1001E000A4F10104DFDC484631462A464346BDE817
:1001F000F09F0000064C074D06E0E06840F0010368
:1002000094E8070098471034AC42F6D3FFF794FF08
:10021000D43C0008F43C0008202A04DB203A00FA11
:1002200002F1002070479140C2F1200320FA03F34D
:10023000194390407047202A04DB203A21FA02F04B
:100240000021704721FA02F3D040C2F12002914010
:1002500008431946704770B58C1810F8015B15F00B
:10026000070301D110F8013B2A1106D110F8012B28
:1002700003E010F8016B01F8016B5B1EF9D12B074D
:1002800005D40023521E0DD401F8013BFAE710F803
:10029000013BCB1A921C03E013F8015B01F8015BF0
:1002A000521EF9D5A142D8D3002070BD00BFFEE791
:1002B00010B500F039FF10BD704700BFFEE700BF6A
:1002C000FEE7704710B5002807DA0A07140E054A42
:1002D00000F00F031B1FD45403E00A07130E024A59
:1002E000135410BD18ED00E000E400E070477047C3
:1002F00010B501F0F3FD10BD1CB54E48006840F488
:1003000070004C4908604C48006840F001004A49C0
:10031000086000BF4848006800F002000028F9D0DB
:100320004548406800F00C00082866D100BF002056
:10033000019002E00198401C019001985028F9D3E7
:100340003D4840680090009820F0F0000090009830
:1003500040F08000009038490098486000200190EB
:1003600002E00198401C019001985028F9D33248CE
:1003700040680090009820F0F0000090009840F055
:10038000900000902C49009848600020019002E005
:100390000198401C019001985028F9D326484068E4
:1003A0000090009820F0F0000090009840F0A0002D
:1003B00000902149009848600020019002E00198D7
:1003C000401C019001985028F9D31B4840680090C8
:1003D000009820F0F0000090009840F0B0000090ED
:1003E0001549009848600020019002E00198401CE7
:1003F000019001985028F9D300BF0F48406820F0C1
:1004000003000D494860C82000F06DFA0A480068F2
:100410000A490840084908604FF41F0088600846F0
:10042000006820F48020086000204860C86202F064
:10043000D7F91CBD88ED00E000100240FFFFF6FE7A
:1004400010B503F0B7FA01F0D3F810BD00BFFEE716
:100450000FB4054B10B503A9044A029800F018F830
:1004600010BC5DF814FB0000F51E0008DC02002043
:1004700002E008C8121F08C1002AFAD1704770476D
:10048000002001E001C1121F002AFBD170470000CB
:100490002DE9FF4F8DB00F460546002606E02528C2
:1004A0000BD0DDE90F1290476D1C761C28780028D0
:1004B000F5D111B03046BDE8F08F0024A246A14628
:1004C0000122E94900E0044315F8013F203B02FA0C
:1004D00003F00842F7D128782A2810D06FF02F02B5
:1004E0002878A0F13001092914D80AEB8A0102EB1F
:1004F000410144F0020400EB010A6D1CF0E701CF5A
:100500005FEA000A03D544F40054CAF1000A44F03B
:1005100002046D1C28782E2817D115F8010F44F01D
:1005200004042A280ED06FF02F022878A0F13001A1
:1005300009290AD809EB890102EB410100EB010905
:100540006D1CF2E757F8049B6D1C28786C280FD0BF
:1005500006DC4C2817D068280DD06A2814D104E096
:10056000742810D07A280FD10DE044F400140AE06A
:1005700044F4801401E044F440146978814202D1CB
:1005800004F580146D1C6D1C28786E281ED00CDCC0
:10059000632830D004DC00288BD0582811D19FE08C
:1005A000642867D069280CD164E073282DD004DC5E
:1005B0006F2872D0702804D194E075286ED0782806
:1005C0006DD0DDE90F129047761C4BE1C4F3025069
:1005D000022806D0032809D0042801CF09D00660DC
:1005E00040E101CFF117C0E900613BE101CF068096
:1005F00038E1067036E117F8040B8DF80000002092
:100600008DF80100EB46012003E057F804BB4FF0E2
:10061000FF3061074FF0000102D40DE008F1010145
:10062000884649450FDA8045F8DB1BF80810002999
:10063000F4D108E008F1010188468142FADB1BF899
:1006400008100029F6D1DDE90F23AAEB0800814646
:10065000214600F031F9304400EB080604E0DDE902
:100660000F121BF8010B9047B8F10108F7D2214691
:100670004846F2E00A21C4F302524FF0000B089101
:10068000022A04D001CFC117032A09D00AE0FF1DB6
:1006900027F00707F7E8020108E02CE01EE01FE062
:1006A00000B2C117042A01D140B2C117021E71F174
:1006B000000206DA0023D0EB030063EB01012D22D8
:1006C00002E0220504D52B228DF82420012203E02C
:1006D000E20701D02022F7E7904653E00A210BE021
:1006E000102109E010214FF0000B44F004044FF0FA
:1006F0000809089103E008214FF0000B0891C4F3AA
:100700000252022A04D001CF0021032A06D006E0BB
:10071000FF1D27F00707F7E8020103E080B2042A73
:1007200000D1C0B24FF0000822072BD52A78702ADA
:1007300007D0DDF820C08CF0100C5CEA0B0C05D063
:100740000EE040228DF82420012208E050EA010347
:1007500006D030238DF824308DF8252002229046D3
:10076000089B83F0080353EA0B030BD150EA010204
:1007700001D1620706D530228DF824204FF0010800
:10078000A9F101092A78582A04D038A20B9208AAA4
:100790000A920BE03AA2F9E75B46089AFFF7F8FCE9
:1007A0000B9B9B5C0A9A521E0A92137050EA01023C
:1007B000F2D10A98ADEB000000F1200B600702D5E2
:1007C00024F4803401E04FF00109D94502DDA9EBA2
:1007D0000B0000E0002000EB0B0141440890AAEB65
:1007E000010AE00306D4DDE90F232146504600F05C
:1007F00063F806444FF0000908E009A911F8090060
:10080000DDE90F12904709F10109761CC145F4DBBF
:10081000E0030CD5DDE90F232146504600F04CF8EB
:10082000064404E0DDE90F1230209047761C089959
:10083000481E08900029F5DC08E00A980A9900781B
:10084000491C0A91DDE90F129047761CBBF10001AB
:10085000ABF1010BF1DC21465046DDE90F2300F03E
:1008600019F806446D1C21E60928010030313233A5
:1008700034353637383961626364656600000000DC
:1008800030313233343536373839414243444546C6
:10089000000000002DE9F041044600251E461746E1
:1008A000880404D405E039462020B0476D1C641E3E
:1008B000F9D52846BDE8F0812DE9F0410446002530
:1008C0001E469046C80301D5302700E02027880443
:1008D00004D505E041463846B0476D1C641EF9D585
:1008E0002846BDE8F08108B50021009102E000999A
:1008F000491C009100EB8001009AB2EB410FF6D346
:1009000008BD10B50346D3F8C800806868B153F835
:10091000C80F806880781C68A468E47840EA0420E6
:10092000108053F8C809806810BD0020108000BFF7
:10093000FAE710B5034653F8C80F406880781C6882
:100940006468E47840EA0420108053F8C8094068DD
:1009500010BD0346D3F8C800006800781080D3F8B3
:10096000C8000068704770B504460D46E07C50B181
:1009700000BFD4F8D010E06D0022CB6A1146984732
:1009800000BF0021E174A078032808D1D4F8CC007E
:10099000006920B1D4F8CC00016920468847207D49
:1009A00001280AD100BF04212175D4F8D00000210C
:1009B000826A2046904700BF04E0207D032801D1D1
:1009C00000212175607830B1D4F8D000C16820468C
:1009D00088470020607070BD70B504460D46A07851
:1009E000032808D1D4F8CC00406920B1D4F8CC0059
:1009F000416920468847207D022803D1204602F025
:100A000004F80EE0207D04280BD104F1180606EB53
:100A1000051000210B460A4641600381428100BF58
:100A2000217570BD2DE9F04104460F460125D4F82B
:100A3000D00000221146436B04F10B009847064694
:100A4000082E04D0204601F0FFFFBDE8F081E07AD7
:100A500000F0600020B1202809D0402815D10DE019
:100A600004F10B01204603F00DF905460EE004F1F8
:100A70000B01204602F008F8054607E004F10B01DF
:100A8000204603F017F9054600E000BF00BF0DBB8C
:100A9000B4F8110018B9204601F0B7FF1DE0E07A64
:100AA00000F0800058B100BF012121756020035B78
:100AB00000212046E26D02F025FB00BF0DE000BFE3
:100AC00002212175D4F8D0000021826A2046904787
:100AD00000BF02E0204601F0B7FF00BFB5E770B5E8
:100AE00004460E460025307800F0030020B10128AE
:100AF00037D0022836D111E0A078022802D003288E
:100B000009D100E000BF7088012803D100212172C3
:100B1000002070BD00E000BF00BF24E03579A07860
:100B200003281DD105F07F00042819D27088B8B9B8
:100B3000B5B1802D14D02946204602F0D9FE78B1F7
:100B400000BFD4F8D0002946C26B2046904700BFB2
:100B5000D4F8CC003146C268204690470020D8E740
:100B600001E000E000BF00BF0120D2E770B50446FD
:100B70000E460125A078022802D0032808D103E000
:100B8000207800B9002504E0207800B1002500E0BD
:100B900000BF00BF35B901231A46214604F15800B1
:100BA00001F065FF284670BD2DE9F04706460D4669
:100BB0000027B8464FF0010906F15804287800F0E4
:100BC000030020B101284BD0022852D150E06888A0
:100BD000070A95F80280102F3FD2DFE807F03E08A1
:100BE000182331323334353E3E3E3E3E3E36781E8B
:100BF000304951F8203004F1080241463046984708
:100C00006060E888402801D10820208126E0781E15
:100C1000284951F8203004F10802414630469847EF
:100C200060601BE0B8F1EF0F09DA781E214951F836
:100C3000203004F1080241463046984760600DE0DC
:100C400000BF00BF00BF00BF08E004F1080241463A
:100C50003046FFF756FE606000E000BF00BF09E0CD
:100C6000D6F8CC002946C26830469047814601E05C
:100C700000E000BF00BF2089C8B1E888B8B1208972
:100C8000E988884201DA208900E0E888208121890A
:100C9000B6F81100814208DA2089218890FBF1F230
:100CA00001FB120008B90121F1744FF00009484618
:100CB000BDE8F0877C02002070B504460D46A078A0
:100CC000012804D0022803D0032810D101E00FE04E
:100CD0000EE0287950B9D4F8CC00411C01231A4603
:100CE00004F1580001F0C3FE002070BD00E000BF19
:100CF00000BF0120F9E700002DE9F04104460E464F
:100D000035790127307800F0030020B101281FD089
:100D100002283DD122E0A078022802D0032814D175
:100D200000E000BF207918B101202049087002E0DE
:100D300000201E490870207A28B11C48007840F035
:100D400002001A490870002700E000BF00BF20E041
:100D5000A078032801D105B900271AE0A07803285C
:100D600015D105F08000802809D105F07F0104F13C
:100D7000580000EB011080780C49087006E004F17F
:100D8000180000EB0510807808490870002700E083
:100D900000BF00BF37B902231A46044904F15800C6
:100DA00001F065FE3846BDE8F081000088020020B1
:100DB0000246012070470246888888B9C88878B9F9
:100DC000887800F07F0050709078032808D0507821
:100DD00010B10220907001E0012090700020704757
:100DE0000120FCE770B504460D460126A878254988
:100DF000087008460078012842D8A07801283CD025
:100E0000022802D0032839D110E01E48007858B1DA
:100E1000D4F8CC0042681B48017820469047194816
:100E2000007820700320A070002628E01548007884
:100E300060B9D4F8CC008268124801782046904707
:100E40001048007820700220A07014E020780D492E
:100E5000097888420FD02178D4F8CC0082682046E7
:100E60009047084800782070D4F8CC0042680548C4
:100E7000017820469047002601E000E000BF00BF57
:100E8000304670BD8A02002002460020704770B5CF
:100E900004460E460025307800F0030020B10128FA
:100EA00037D0022836D111E0A078022802D00328DA
:100EB00009D100E000BF7088012803D1012121720F
:100EC000002070BD00E000BF00BF24E03579A078AD
:100ED00003281DD105F07F00042819D27088B8B905
:100EE000B5B1802D14D02946204602F001FD78B11D
:100EF00000BFD4F8D0002946826B2046904700BF3F
:100F0000D4F8CC003146C268204690470020D8E78C
:100F100001E000E000BF00BF0120D2E770B5044649
:100F20000D46A078012804D0022803D0032811D14F
:100F300001E010E00FE0287958B9A878D4F8CC1077
:100F40004870D4F8CC002946C2682046904700205B
:100F500070BD00E000BF00BF0120F9E7024600209D
:100F6000704710B50346D3F8C840E46854F8210030
:100F70000478148010BD00B585B004E001F0B4F829
:100F8000684601F05BF9684600F090FB0028F5D157
:100F900005B000BD10B501F097F808220349900193
:100FA00000F0DEFB02A0FFF753FA10BD04000020A2
:100FB0005B43414E2054585D2053656E7420494474
:100FC0003A2030783230300D0A00000010B500F0C1
:100FD000E9F84FF4E13000F0CFF900F005F900F046
:100FE0002DF801F07DF900F009FA10BD10B500F000
:100FF00071FA09480068401C074908600846006803
:10100000B0F57A7F03D300200860FFF7C3FF00F03C
:1010100005F8FFF7B0FF10BD0C00002010B590B030
:101020004021684600F07CFA04461CB1214668461F
:1010300001F060F901F082F910B010BD00B589B07F
:1010400040F2036001F0BCFA4FF4C06001F0B8FA5E
:1010500040F2197001F0B4FA01214FF4EA1000F0E7
:10106000CBFF4FF40073032218212D4800F05DFFE1
:101070004FF4807303224821294800F056FF294885
:1010800000F07AFB06A9002000F0D7FD00208DF8C3
:101090001C0001208DF81D008DF81E008DF81F002A
:1010A00000208DF820008DF821008DF81800062012
:1010B000ADF8220000208DF8190006208DF81A00E6
:1010C00001208DF81B0006A9164800F0EDFB01A9D0
:1010D000012000F0B2FD0020ADF80E00ADF81000C8
:1010E0000120ADF812000020ADF80400ADF80600B4
:1010F000ADF80800ADF80A000120ADF80C008DF83D
:10110000140001A800F048FB1021064800F05DFC27
:1011100000220121152001F003F809B000BD0000F4
:10112000000C01400064004010B586B022E001AA26
:101130000121164800F055FC15480078401C00F0CD
:101140000F0414480078844205D113480068401CFD
:10115000114908600EE00E49097801EB81010F4A40
:1011600002EB8100142201A9FFF700F8BFF35F8FA3
:10117000074804700121054800F052FD0028D6D12F
:101180000749024800F025FC06B010BD006400408D
:10119000100000201100002014000020E0020020B8
:1011A0008400010010B540F2026001F009FA30231A
:1011B000032210210B4800F0B8FE1021094800F06E
:1011C000ADFE2021074800F0A9FE4FF48063032202
:1011D0001021044800F0A9FE4FF48061014800F09E
:1011E0009BFE10BD0008014010B515A0FFF730F9B7
:1011F00021A0FFF72DF9002001F036F90446214621
:1012000027A0FFF725F9012001F02EF90446214619
:101210002DA0FFF71DF9022001F026F90446214612
:1012200033A0FFF715F9032001F01EF9044621460B
:1012300039A0FFF70DF942A0FFF70AF910BD000031
:101240000D0A3D3D3D3D3D3D3D3D3D3D3D3D3D3D31
:101250003D3D3D3D3D3D3D3D3D3D3D3D3D3D3D3DBE
:101260003D3D3D3D3D3D3D3D3D3D3D3D3D3D3D3DAE
:101270003D3D3D3D3D0000000D0A20202047443308
:10128000324633303343425436205553422D434186
:101290004E20426F617264204F6E6C696E65210052
:1012A0000D0A202020434B5F53595320206973209F
:1012B000257520487A20285461726765743A203178
:1012C00032304D487A2900000D0A202020434B5F20
:1012D0004148422020697320257520487A202854EF
:1012E00061726765743A203132304D487A290000C6
:1012F0000D0A202020434B5F41504231206973206A
:10130000257520487A20285461726765743A202038
:1013100036304D487A2900000D0A202020434B5FCB
:101320004150423220697320257520487A20285484
:1013300061726765743A203132304D487A29000075
:101340000D0A3D3D3D3D3D3D3D3D3D3D3D3D3D3D30
:101350003D3D3D3D3D3D3D3D3D3D3D3D3D3D3D3DBD
:101360003D3D3D3D3D3D3D3D3D3D3D3D3D3D3D3DAD
:101370003D3D3D3D3D0D0A0010B5044640F2026082
:1013800001F01EF940F2117001F01AF90423032252
:101390001821184800F0C9FD08230322042115482C
:1013A00000F0C3FD144801F093FA2146124801F001
:1013B00043FA0021104801F020FB00210E4801F003
:1013C0000AFB00210C4801F0F4FA00210A4801F060
:1013D000E6FA0021084801F0D8FA0421064801F095
:1013E000F0FA0821044801F0FEFA034801F0B8FAC7
:1013F00010BD0000000801400044004010B54FF44B
:10140000000001F00DF940F2177001F0D9F810A0BA
:10141000FFF71EF8002001F005FBC82000F054FD86
:10142000144A1549154802F077FA002201211420C8
:1014300000F076FE00201249087012490870124927
:101440000870012001F0EEFA10A0FFF701F810BDBE
:101450005B5553425D20526573657474696E6720F5
:101460005553422044502070756C6C2D75702E2E93
:101470002E0D0A0024020020140200202004002067
:10148000180000201B000020200000205B55534264
:101490005D205553422043444320496E697469617D
:1014A0006C697A65642C2057616974696E6720667F
:1014B0006F7220486F73742E2E2E0D0A00000000EC
:1014C00003488078032801D1012070470020FCE701
:1014D0002004002010B5FFF7F3FF48B900200B49A6
:1014E00008700B4908700B4800780B49087010BD54
:1014F0000648007828B9094800F028FC0120034973
:10150000087000F075F800BFF1E700001800002037
:101510001B000020190000201A00002020040020D9
:101520002DE9F04107460D461FB115B1FFF7C8FF81
:1015300010B90020BDE8F0810D48D0F8D4400CB1BE
:10154000A07808B90020F5E7B4F8440086B2AE42AE
:1015500000DD2E463246E11C3846FEF707FE044801
:1015600000F0F4FB0120034908703046E2E7000078
:10157000200400201800002070B505460C461DB15F
:1015800014B1FFF79DFF00B970BD402C00D9402475
:1015900012480078401C00F0070611480078864287
:1015A00005D110480068401C0E490860ECE70E4960
:1015B0000A4A127801EB821022462946FEF7D6FD30
:1015C0000A480649097820F81140BFF35F8F0348A5
:1015D000067000F00DF800BFD6E7000019000020EB
:1015E0001A0000201C000020000500200007002039
:1015F00010B52748007800B110BD012024490870BB
:10160000FFF75EFF28B900202249087020490870C2
:10161000F2E72148D0F8D4401CB900201C490870DA
:10162000EAE71C48007880B16078012803D00020E8
:1016300017490870E0E719480078401C00F00700DF
:10164000164908700020134908701548007813499E
:101650000978884203D100200D490870CCE70020AA
:10166000607010480D49097830F811300E480B4968
:10167000097800EB81128121074801F043FD012028
:101680000449087000200249087000BFB4E7000058
:10169000200000201B000020200400201A00002051
:1016A00019000020000700200005002010B50446A6
:1016B0002CB10E4800780E490978884201D10020EB
:1016C00010BD0B48007800EB80000A4A02EB800155
:1016D00014222046FEF74AFD05480078401C00F021
:1016E0000F00034908700120EAE700001000002005
:1016F00011000020E00200202DE9F04186B00646EE
:101700000F4690461D46082D00D9082537B1042004
:101710008DF80C0002960020019007E000208DF863
:101720000C00C6F30A0001900020029000208DF802
:101730000D008DF80E50002406E018F804100DF18D
:101740000F000155601CC4B2AC42F6DB01A903488E
:1017500000F0BAF906B0BDE8F08100000064004076
:1017600070B506460C4615462B46224600213046EB
:10177000FFF7C2FF70BD000010B504460548844263
:1017800007D140F2194000F03BFF40F2194000F051
:1017900027FF10BD0064004010B50021837A0122AC
:1017A00002FA03F13E4A126842F001023C4B1A6011
:1017B0003B4A1C3212688A43394B1C331A60C28977
:1017C000DAB9374A0C3212688A43354B0C331A6047
:1017D000C288344B03EA024243881A434389304C9F
:1017E000403444F8332082882E4B03EA02420388B7
:1017F0001A43438904EBC3035A60C289012A1BD1EF
:10180000274A0C3212680A43254B0C331A600288AF
:10181000244B03EA024243881A434389204C403454
:1018200044F8332082881F4B03EA0242C3881A43DC
:10183000438904EBC3035A6082893AB9184A121DDE
:1018400012688A43164B1B1D1A6006E0144A121DCB
:1018500012680A43124B1B1D1A6002893AB9104ADA
:10186000143212688A430E4B14331A6006E00C4A95
:10187000143212680A430A4B14331A60027C012A9C
:1018800006D1074A1C3212680A43054B1C331A6002
:10189000034A126822F00102014B1A6010BD0000D9
:1018A000006600400000FFFF70B502464FF6FF7370
:1018B0000020146824F002041460146844F0010449
:1018C000146000E05B1E546804F001040CB9002BA6
:1018D000F8D1546804F001040CB9002074E00C78CD
:1018E0004FF0404505EA84744D784FF0407606EAA3
:1018F00005652C438D784FF4702606EA05452C4388
:10190000CD784FF4E00606EA05552C434D896D1E4F
:10191000C5F309052C43D4610C79012C04D114685A
:1019200044F08004146003E0146824F08004146020
:101930004C79012C04D1146844F04004146003E095
:10194000146824F0400414608C79012C04D11468CC
:1019500044F02004146003E0146824F020041460B0
:10196000CC79012C04D1146824F01004146003E035
:10197000146844F0100414600C7A012C04D114682B
:1019800024F00804146003E0146844F008041460B0
:101990004C7A012C04D1146844F00404146003E070
:1019A000146824F004041460146824F00104146022
:1019B0004FF6FF7300E05B1E546804F001040CB1A5
:1019C000002BF8D103B1012070BD42690A43426186
:1019D0007047C1F3841301229A4000EB11331A605F
:1019E000704710B500F5D87303EB01131B6803F0C3
:1019F00004031372137A3BB900F5D87303EB011398
:101A00001B685B0D136006E000F5D87303EB011350
:101A10001B68DB08536000F5D87303EB01131B68E8
:101A200003F00203537200F5DA7303EB01131B6832
:101A30001B0AD37400F5DA7303EB01131B6803F080
:101A40000F03937200F5DC7303EB01131B68D37271
:101A500000F5DC7303EB01131B681C0A147300F51B
:101A6000DC7303EB01131B681C0C547300F5DC736F
:101A700003EB01131B681C0E947300F5DE7303EB7C
:101A800001131B68D37300F5DE7303EB01131B68AE
:101A90001C0A147400F5DE7303EB01131B681C0CA5
:101AA000547400F5DE7303EB01131B681C0E947471
:101AB00021B9C36843F02003C36003E0036943F026
:101AC0002003036110BD000030B50246002093687A
:101AD00003F08063B3F1806F00D110E0936803F0EE
:101AE0000063B3F1006F01D1012008E0936803F0B7
:101AF0008053B3F1805F01D1022000E0032003286E
:101B00007DD002F5C07303EB00131B6803F00104E2
:101B100002F5C07303EB00131C600B7A8BB90B88C2
:101B20003E4C04EA43534C7A234302F5C07404EB61
:101B300000142468234302F5C07404EB00142360EE
:101B400013E06FF007044B6804EAC3030C7A2343E5
:101B50004C7A234302F5C07404EB00142468234339
:101B600002F5C07404EB0014236002F5C27303EBAA
:101B700000131B6823F00F0402F5C27303EB00137C
:101B80001C608B7A082B01D908238B7202F5C27373
:101B900003EB00131B688C7A234302F5C27404EB39
:101BA000001423608B7B4FF07F4404EA03634C7B7B
:101BB0004FF47F0505EA044423430C7B2D1205EA0C
:101BC00004242343CC7A234302F5C47404EB0014A9
:101BD00023608B7C2C0404EA03634C7C2D0205EA11
:101BE000044423430C7C2D1205EA04242343CC7BBC
:101BF000234302F5C67404EB0014236000E00BE0FD
:101C000002F5C07303EB00131B6843F0010402F5F7
:101C1000C07303EB00131C6030BD00000000E0FF48
:101C20000246002019B9D36803F0030004E001293B
:101C300002D1136903F00300704710B5024609B9D9
:101C400000BFFEE732B1012A16D0022A20D0032AB3
:101C500041D12EE000234B71CB718B7140F2FF33E9
:101C60004B8100230B724B7002238B700023CB70CF
:101C70000B714B720B7030E00123CB8100230B748E
:101C80000B810B804B808B80CB808B814B8124E040
:101C9000002005E0002401F10B031C54431CD8B2C2
:101CA0000828F7D300238B724B600B724B720B60CA
:101CB00013E0002005E0002401F10B031C54431C39
:101CC000D8B20828F7D300238B724B600B72CB7409
:101CD0004B720B6001E000BFFEE700BF10BD014684
:101CE000D1F8D420D1F8CC000078FF2806D001200C
:101CF00090701070FF20D1F8CC3018700020704721
:101D00002DE9F04104460D4604F1580000EB05169C
:101D1000D4F8D47070893188884207D105F07F01EA
:101D200000231A46204601F0EDF902E00120787008
:101D30003870BDE8F081D0F8D4200123937000F111
:101D4000180303EB01135B895364704770B50546B4
:101D5000D5F8D4400020A07020704023E21C03215D
:101D6000284601F03EF970BD70B504460D4681214C
:101D7000204601F0ABF80321204601F0A7F88221AC
:101D8000204601F0A3F8002070BD00007CB5044699
:101D90000D461C4B4FF4A0720021204601F010F9B3
:101DA000184BDB1F4FF480720021204601F008F928
:101DB000144B173BC0220021204601F001F91248C4
:101DC0008169C4F8AC10C169C4F8C01000200F4983
:101DD0008870012048700870002048640C4903C9CD
:101DE000CDE900010948483000990160BDF80410B0
:101DF00081809DF8061081714838C4F8D400002015
:101E00007CBD000072000020240200203809002060
:101E1000BC3C00082DE9FE4304460D464FF0010886
:101E20000020009001900290D4F8D4706E4668783B
:101E3000042815D007DC78B101280ED002280DD077
:101E400003283CD10BE020280BD0212818D02228D1
:101E500021D0232833D131E032E031E030E02FE0EF
:101E60002EE06878D4F8CC100870EA88002307F1D7
:101E7000480104F1180000F0F2FD4FF000081FE0E7
:101E80000023072207F1480104F1580000F0E7FDA4
:101E90004FF0000814E0A120307020207070002066
:101EA000B08070800220F080A87800F003008DF8E8
:101EB000080000208DF80900804601E000E000BF26
:101EC00000BF4046BDE8FE830349086000BF0249E9
:101ED00009680029FBD17047D80200200448006837
:101EE00020B103480068401E0149086070470000A7
:101EF000D802002070B504460D46E1B2054800F056
:101F0000E3FC00BF0721034800F02FFD0028F9D0B3
:101F1000204670BD00440040416170470161704738
:101F20000AB1016100E041617047F0B50446164610
:101F30000025002201F00F0501F0100747B1042E23
:101F400005D145F00305E76B1F43E76300E0354328
:101F500000201EE0012787401F40C7B122684FEADA
:101F6000800C0F2707FA0CF7BA43870005FA07F72A
:101F70003A43282904D1012787401F40676105E0C3
:101F8000482903D1012787401F4027612260471C51
:101F9000B8B20828DED3082022E0012787401F407E
:101FA000E7B16268A0F108074FEA870C0F2707FA2C
:101FB0000CF7BA43A0F10807BF0005FA07F73A4348
:101FC000282904D1012787401F40676105E048297F
:101FD00003D1012787401F4027616260471CB8B2C8
:101FE0001028DAD3F0BD0246D3680B400BB10120B4
:101FF00000E0002070470000F0B50A4600230024EE
:102000000021002500F00046B6F1004F02D11D4E20
:10201000F16901E01B4E7168C0F3034583B200F41F
:102020004016B6F5401F08D121F0E061154E7668E4
:1020300026F0E066134F7E6012E000F48016B6F5DD
:10204000801F06D1032606FA05F4A14341F0E061A2
:1020500006E0460D360103FA06F6B14341F0E061B1
:1020600022B1460D360103FA06F6314300F0004670
:10207000B6F1004F02D1034EF16101E0014E7160F3
:10208000F0BD00000000014030B50B46002100BF4C
:1020900016E00A24B4EB107F05D9302404EB107449
:1020A00003F8114005E0412404EB10740A3C03F8E6
:1020B0001140000100254C00641C1D554C1CE1B270
:1020C0009142E6DB30BD000010B510210548FFF756
:1020D0008AFFC0F10100C4B2224610210148FFF777
:1020E0001FFF10BD0008014010B520210548FFF773
:1020F0007AFFC0F10100C4B2224620210148FFF757
:102100000FFF10BD0008014000F06EFBFEF75EFF00
:1021100004E0FEF76BFF0120FFF7D6FEF9E70000B1
:102120002DE9F04F03460E4617463D48006800F47F
:10213000E060B0F5A06F0FD006DCB0F5407F0DD0A9
:10214000B0F5806F0BD108E0B0F5C06F03D0B0F5EB
:10215000E06F04D100BF00BF00BF00BF04E04FF438
:10216000A06000F061F800BF00BF00BF2C4800680D
:10217000C0F30220044620463246BC460146C1F167
:10218000070ABAF1040F02D94FF0040A01E0C1F1C5
:10219000070AD14601F1040ABAF1070F02D24FF043
:1021A000000A01E0A1F1030AD0464FF0010A0AFA41
:1021B00009FAAAF1010A0AEA020A0AFA08FA4FF031
:1021C000010B0BFA08FBABF1010B0BEA0C0B4AEA13
:1021D0000B0500BF1946284600290BDA02074FEA13
:1021E00012680F4A0C3201F00F0CACF1040C02F82B
:1021F0000C8005E002074FEA126C0A4A02F801C09F
:1022000000BF00BF03F01F01012088405909890069
:1022100001F1E021C1F8000100BFBDE8F08F00002E
:102220000CED00E000E400E002490143024A1160C5
:10223000704700000000FA050CED00E02DE9F041C8
:10224000044614B1FFF73CF908B9BDE8F081AA20B3
:102250002249087055204870207A08B9012000E012
:1022600002201E498870207A08B9206800E0606862
:102270000646300E1949C870300C0871300A487192
:102280008E71A07AC871084600218160C160002566
:1022900008E004F10B00415D05F108000F4A1154FC
:1022A000681CC5B2A07AA84201DD082DF1D3002731
:1022B000022505E00948405D3844C7B2681CC5B234
:1022C0000F2DF7D905480774EE20044948741221F0
:1022D0000248FFF751F900BFB7E7000026090020C8
:1022E00000200349A1F80002A1F802027047000093
:1022F0001007002070B5024602B970BD002015E03D
:102300000D4CB4F80042641CC4F308030A4CB4F842
:1023100002429C4200D10BE0145C074DB5F800521C
:10232000054E74553446A4F80032401C8842E7D369
:1023300000BF00BFE1E7000010070020F8B585E00E
:102340004648007830B1012810D0022829D003284F
:1023500077D138E09DF80000AA2806D19DF800004A
:102360003F49087001203D4908706EE09DF800006B
:10237000552809D19DF80000394948700220394993
:102380000870364908700BE09DF80000AA2804D1B7
:102390009DF800003249087002E000202F490870C3
:1023A00053E09DF800102F4802780078401C2D4B18
:1023B00018702B48815418460078112802D3032046
:1023C0002649087041E09DF80000EE2834D19DF8C0
:1023D0000000234948740025022405E02048005DE0
:1023E0002844C5B2601CC4B20F2CF7D91C48007C2D
:1023F000A84221D11A48C07800061949097940EA53
:1024000001401749497940EA01201549897940EA94
:1024100001071348C679082E00D90826104880788D
:10242000022801D1012000E00020014633460C4A79
:1024300008323846FFF760F900200849087004E0C8
:10244000FFE700200549087000BF00BF684600F0A4
:10245000F3F800287FF474AFF8BD000021000020DD
:1024600014090020220000202DE9F04F8CB007460F
:1024700000200A904AA090E8004CC068CDE905BE53
:10248000CDF810A007900FF21C1ADAE9000ACDE986
:10249000020A0FF2101ADAE9000ACDE9000A4448EC
:1024A0004068C0F381000B900B9820B1012804D044
:1024B00002283FD103E03F4A3EE03E4A3CE03C4830
:1024C000406800F4803CBCF5803F12D13848C06AB7
:1024D00000F08048B8F1000F01D1364B00E0364BD8
:1024E0003348406800F40039B9F5003F02D15B0879
:1024F00000E0324B2E484068C0F383412C484068CE
:1025000000F0006008B141F010012948406800F077
:10251000804008B141F020010F2901D2891C06E05A
:102520000F2903D33E2901D8491C00E03F2103FBBA
:1025300001F201E01F4A00BF00BF1D484068C0F320
:10254000031504A8465D22FA06F419484068C0F352
:10255000022502A8465D24FA06F009901448406856
:10256000C0F3C2251DF8056024FA06F0089037B1C3
:10257000012F06D0022F06D0032F0AD106E00A92BF
:1025800008E00A9406E009980A9003E008980A9087
:1025900000E000BF00BF0A980CB0BDE8F08F00005B
:1025A0000000000000000000010203040607080903
:1025B0000010024000127A00006CDC0200093D00AD
:1025C000064A02EB9011096800F01F0301229A40AD
:1025D0001143024B03EB9012116070470010024050
:1025E000064A02EB9011096800F01F0301229A408D
:1025F0009143024B03EB90121160704700100240B0
:10260000064A02EB9011096800F01F0301229A406C
:102610001143024B03EB901211607047001002400F
:10262000044A516821F4400141EA0002014B5A601A
:10263000704700000010024001460D48B0F800024B
:102640000B4AB2F80222904201D10020704708489C
:10265000B0F80202064A105C08701046B0F8020298
:10266000401CC0F30800A2F802020120EEE70000BF
:10267000100700202DE9F04104462078062813D0E9
:102680000E480568001D0668001D07683D4455B1E9
:102690000822A11C2846FFF7F7FC042204F11201CE
:1026A0003046FFF7F1FC06E00549086810B160808C
:1026B000010CA18000BFBDE8F0810000E8F7FF1F1A
:1026C0000021024008B500200021414A126842F46E
:1026D00080323F4B1A6000BF401C3D4A126802F432
:1026E000003119B94FF6FF729042F5D1384A12689D
:1026F00002F400320AB900BFFEE7354AD26942F05F
:102700008052334BDA61334A126842F44042314B13
:102710001A602F4A52682E4B5A601A4652685A6005
:102720001A46526842F480625A601A46526822F48D
:1027300040325A601A46526842F440325A601A4691
:102740005268254B1A40224B5A601A465268234B56
:102750001A431F4B5A601A46126842F080721A6080
:1027600000BF1B4A126802F00072002AF9D0194A11
:10277000126842F48032174B1A6000BF154A526843
:1027800002F48032002AF9D0124A126842F4003270
:10279000104B1A6000BF0F4A526802F40032002A40
:1027A000F9D00B4A52680092009A22F0030200927C
:1027B000009A42F002020092054B009A5A6000BF54
:1027C000034A526802F00802002AF9D008BD00004E
:1027D0000010024000700040FFFFC3B70000340843
:1027E00010B5FFF76FFF10BD10B5124800684FF429
:1027F0007A71B0FBF1F4601EB0F1807F01D301204B
:102800000FE0601E4FF0E02148610F214FF0FF30D4
:10281000FDF758FD00204FF0E02188610720086196
:10282000002008B100BFFEE70021481EFDF74AFD69
:1028300010BD0000000000202DE9F04704460D46C1
:102840000027B846B94600261D49601A8C421CD0A4
:1028500006DC1C48204470B1B0F5806F1FD10FE03A
:10286000B0F5806F16D0B0F56C4F18D10320FFF78C
:10287000FBFD074614E00220FFF7F6FD07460FE0D8
:102880000220FFF7F1FD07460AE00220FFF7ECFD0A
:10289000074605E00220FFF7E7FD074600E000BF1E
:1028A00000BF07EB5500B0FBF5F64FF6F07006EAF7
:1028B000000806F00F0948EA0900A060BDE8F087AB
:1028C000004C004000BCFFBFC1F3080242607047EB
:1028D00010B504462049601A8C4228D006DC1F48F7
:1028E000204490B1B0F5806F33D117E0B0F5806F20
:1028F00026D0B0F56C4F2CD140F20E30FFF780FEA1
:1029000040F20E30FFF76CFE24E040F21140FFF77A
:1029100077FE40F21140FFF763FE1BE040F21240E9
:10292000FFF76EFE40F21240FFF75AFE12E040F24F
:102930001340FFF765FE40F21340FFF751FE09E038
:1029400040F21440FFF75CFE40F21440FFF748FEEF
:1029500000E000BF00BF10BD004C004000BCFFBF46
:10296000C16841F40051C160704730B50246002093
:1029700002EB91131B6801F01F050124AC402340BA
:102980000BB1012000E0002030BD426922F400724A
:102990004261426901F400731A434261704742691F
:1029A00022F480724261426901F480731A434261E9
:1029B0007047C26822F4C062C260C2680A43C26043
:1029C0007047C26822F00402C260C26801F00403CA
:1029D0001A43C2607047026922F4405202610269E0
:1029E0000A4302617047C26822F00802C260C268EE
:1029F00001F008031A43C2607047C26822F4805293
:102A0000C260C2680A43C260704710B50446032121
:102A10002175D4F8D010E06D0022CB6A114698479A
:102A200010BD000010B504462CB14FF4806105487C
:102A3000FFF774FA04E04FF480610248FFF76CFA84
:102A400010BD00000008014070B504460025D4F810
:102A5000D0002946826B2046904700BF70BD416080
:102A60000281438170474160028143817047416028
:102A70000281438170470000417841F08001014AA2
:102A8000116070474C5C004070B504460D46A0785C
:102A9000032808D1287930B9D4F8CC002946C26877
:102AA0002046904770BD0120FCE700000120084946
:102AB000086000200860091D0860054910310860A1
:102AC0000348006840F41F40014908607047000057
:102AD000405C00400120044908600020091D086096
:102AE0000320091F08607047405C004010B5044691
:102AF000012C04D101020548FFF710FA04E04FF45D
:102B000080710248FFF708FA10BD00000020014064
:102B1000F0B503460024002500266AB9214800EBE1
:102B20000110C068C0F309051E4800EB0110806861
:102B30001D4F07EB400627E0012A23D11B4F07EB6F
:102B40008100D0F8000C00F4804068B1154800EB1B
:102B500001104068C0F30905124800EB011000683D
:102B6000114F07EB40060FE00E4800EB0110C06864
:102B7000C0F309050B4800EB011080680A4F07EB12
:102B8000400601E00020F0BD002405E036F8047B9B
:102B90001F809B1C601C84B2681CB4EB500FF5D3E3
:102BA0002846F0E700600040006000400050004010
:102BB00070B58AB1154D05EB01152D68144E06EB65
:102BC0004504002303E0058820C4801C5B1C551CC1
:102BD000B3EB550FF7D300BF0C4B03EB01135A6057
:102BE00000BF0C4D05EB8104D4F8004C48F6BF75CE
:102BF0002C4084F0300343F4004444F08004054E3C
:102C000006EB8105C5F8004C00BF70BD00600040B8
:102C100000600040005000402DE9F84F04469846FF
:102C2000DFF89892D9F80490CDF80090DFF890A2E0
:102C30000AEB8109D9F8006CDDF8009009F1580918
:102C400009EB01130AEB8109D9F8009C09F4C0696A
:102C5000B9F1000F08D10AEB8109D9F8009C09F4F9
:102C60008079B9F1000F0AD1DFF854A20AEB81098B
:102C7000D9F8009C09F4C069B9F5806F02D14FF012
:102C8000010901E04FF00009B9F1000F7DD0B8F162
:102C9000010F7BD1B3F80090914578DADFF82492E8
:102CA00009EB0119D9F80090DFF81CA20AEB4907DB
:102CB000DFF8109209EB0119D9F808900AEB490CDA
:102CC00006F04009B9F1000F32D0002005E0B4F859
:102CD00000904CF8049BA41C401CB3F8009009F130
:102CE0000109B0EB590FF2D3002005E0B4F80090D1
:102CF00047F8049BA41C401CB3F80090A2EB090900
:102D000009F10109B0EB590FF0D3B3F80090DFF8E7
:102D1000B4A10AEB011ACAF80C90B3F80090A2EB28
:102D20000909DFF8A0A10AEB011ACAF80490ABE088
:102D3000002005E0B4F8009047F8049BA41C401C58
:102D4000B3F8009009F10109B0EB590FF2D300205C
:102D500005E0B4F800904CF8049BA41C401CB3F8A8
:102D60000090A2EB090909F10109B0EB590FF0D36A
:102D7000B3F80090DFF84CA10AEB011ACAF80490EE
:102D8000B3F80090A2EB090902E095E042E006E00A
:102D9000DFF830A10AEB011ACAF80C9074E006F0D3
:102DA0004009B9F1000F0AD0DFF8189109EB0119B9
:102DB000D9F80890DFF810A10AEB490509E0DFF81F
:102DC000049109EB0119D9F80090DFF8FCA00AEB97
:102DD000490562B1002005E0B4F8009045F8049B75
:102DE000A41C401C02F10109B0EB590FF4D306F00A
:102DF0004009B9F1000F06D0DFF8C89009EB0119BE
:102E0000C9F80C2040E0DFF8BC9009EB0119C9F8C3
:102E1000042039E006F04009B9F1000F0AD0DFF8CC
:102E2000A49009EB0119D9F80090DFF89CA00AEBF7
:102E3000490509E0DFF88C9009EB0119D9F80890F1
:102E4000DFF884A00AEB490562B1002005E0B4F880
:102E5000009045F8049BA41C401C02F10109B0EB52
:102E6000590FF4D306F04009B9F1000F06D0DFF88E
:102E7000549009EB0119C9F8042005E0DFF84490EB
:102E800009EB0119C9F80C2000BFDFF834B00BEBD7
:102E9000810ADAF800AC48F6BF7B0AEA0B0A8AF02E
:102EA000300949F4004A4AF0800ADFF814E00EEBDA
:102EB000810BCBF800AC00BFBDE8F88F8C0200207E
:102EC00000500040006000400060004070B50446C3
:102ED0000D46D4F8D0002946426A2046904770BD7E
:102EE00070B5044601F07F00CA1192B300BF334BA6
:102EF00003EB8002D2F8002C02F04002A2B100BF26
:102F00001D4605EB8003D3F8003C48F68F752B4037
:102F100043F0400242F4004343F08003274E06EBA7
:102F20008005C5F8003C00BF00BF00BF234D05EB86
:102F30008003D3F8003C48F6BF7503EA050242F46B
:102F4000004343F080031D4E06EB8005C5F8003CAE
:102F500033E0FFE700BF194B03EB8002D2F8002CEF
:102F600002F48042A2B100BF1D4605EB8003D3F8F6
:102F7000003C48F68F752B4043F4804242F40043F6
:102F800043F080030D4E06EB8005C5F8003C00BF02
:102F900000BF00BF094D05EB8003D3F8003C4BF6A2
:102FA0008F7503EA050242F4004343F08003034EA9
:102FB00006EB8005C5F8003C00BF70BD0050004026
:102FC0002DE9F04104460D4616461F46D4F8D000C0
:102FD0003B4632462946D0F820C02046E047BDE8AF
:102FE000F0812DE9F04104460D4616461F4605F0D6
:102FF0007F0104F1180000EB011800233A46314626
:103000004046FFF730FDD4F8D0002946826A2046BA
:103010009047BDE8F081000030B50246002102F182
:1030200058008023264C23600023636040230380E4
:103030004038A360038003883E2B16D9037803F041
:103040001F0343B103885B114FF4004444EA832318
:103050001B4CE36010E003880124C4EB6313E4031A
:1030600044EA8323164CE36006E003885B1C23F0EC
:1030700001035B02124CE36001210FE0114C04EBF1
:103080008103D3F8003C48F68F74A3430B430D4DE6
:1030900005EB8104C4F8003C4B1CD9B20429EDD3E4
:1030A000094B1B689BB2084C236043F2202323602A
:1030B0008023054C4C3423600123937030BD000005
:1030C0000060004000500040005C004030B5024607
:1030D00000BF4B060A4C04EBD353D3F8003C4BF62D
:1030E0008F74234083F4405040F4004343F0800346
:1030F0004C06034D05EBD454C4F8003C00BF30BD72
:10310000005000402DE9F04781468A4617461E468A
:103110000AF07F0809F1580000EB0814324901EB6E
:103120008800D0F8000C00F4C06030B901EB8800D2
:10313000D0F8000C00F4807048B92B4901EB8800EE
:10314000D0F8000C00F4C060B0F5806F01D1012010
:1031500000E0002080B320884000B04201D9304612
:1031600001E02088400085B2D9F8D00001232A462A
:103170004146D0F830C03846E04736B1701E21884D
:103180000844B0FBF1F0A08101E00120A081A089FA
:10319000022809D12088281A83B2701B82B27919BB
:1031A0002046FFF760FC1DE0701B82B279192B46A8
:1031B0002046FFF758FC15E0FFE72088B04201DD0C
:1031C000304600E020880546D9F8D0002A4641461E
:1031D000C36A38469847701B82B279192B4620463D
:1031E000FFF741FCBDE8F087005000402DE9F047B3
:1031F00006460C461D46AF7807F07F00A9880023DD
:1032000095F803C00CF0030CDFF8D88458F82CC0F4
:103210004CEA000CDFF8D09409EB8008C8F800CC29
:103220004FEAE71CBCF1000F7DD006F1580C0CEB07
:1032300000131980DCB9DFF8B4C40CEB001CCCF827
:10324000002000BF09EB8008D8F8008C48F6BF7951
:1032500008EA090888F0200C4CF4004848F080087F
:10326000DFF884A40AEB8009C9F8008C38E2012C4D
:10327000FCD100BFDFF8709409EB8008D8F8008C0F
:1032800048F4807848F68F7908EA090C4CF4004835
:1032900048F08008DFF850A40AEB8009C9F8008CD8
:1032A00000BF00BFD04608EB800CDCF800CC0CF06F
:1032B000400CBCF1000F14D000BFC14609EB8008E0
:1032C000D8F8008C48F68F7908EA090848F0400CD5
:1032D0004CF4004848F080080AEB8009C9F8008CDB
:1032E00000BF00BF00BFDFF8008408EB800CDCF8F3
:1032F00000CC0CF4804CBCF1000F18D000BFC146CC
:1033000009EB8008D8F8008C48F68F7908EA09089C
:1033100048F4804C4CF4004848F08008DFF8C8A31B
:103320000AEB800900E076E0C9F8008C00BF00BF1E
:1033300000BFDFF8B49309EB8008D8F8008C48F69A
:103340008F7908EA090848F4804C4CF4004848F0AA
:103350008008DFF894A30AEB8009C9F8008C00BF4D
:103360001FFA82FCDFF8848308EB0018C8F800C05D
:103370004FEA124CDFF8748308EB0018C8F808C055
:10338000D04608EB800CDCF800CC0CF4C06CBCF52B
:10339000806F14D000BFC14609EB8008D8F8008CBC
:1033A00048F6BF7908EA090888F0200C4CF4004878
:1033B00048F080080AEB8009C9F8008C15E000BFCE
:1033C000DFF8249309EB8008D8F8008C48F6BF7921
:1033D00008EA090C4CF4004848F08008DFF808A31C
:1033E0000AEB8009C9F8008C00BF00BFDFF8F89233
:1033F00009EB8008D8F8008C4BF68F7908EA090CA5
:103400004CF4004848F08008DFF8DCA20AEB8009A1
:10341000C9F8008C64E106F1180C0CEB001319805C
:1034200034B9DFF8C8C20CEB001CCCF80820B9E0B6
:10343000012C7DD100BFDFF8B09209EB8008D8F8ED
:10344000008C48F4807848F68F7908EA090C4CF42F
:10345000004848F08008DFF890A20AEB8009C9F81C
:10346000008C00BF00BFD04608EB800CDCF800CC1D
:103470000CF4804CBCF1000F14D000BFC14609EB26
:103480008008D8F8008C48F68F7908EA090848F4D3
:10349000804C4CF4004848F080080AEB8009C9F8D9
:1034A000008C00BF00BF00BFDFF83C8208EB800C3F
:1034B000DCF800CC0CF0400CBCF1000F16D000BFC3
:1034C000C14609EB8008D8F8008C48F68F7908EAE5
:1034D000090848F0400C4CF4004848F08008DFF838
:1034E00008A20AEB8009C9F8008C00BF00BF00BF2A
:1034F000DFF8F49109EB8008D8F8008C48F68F7952
:1035000008EA090848F0400C4CF4004848F08008EC
:10351000DFF8D4A10AEB8009C9F8008C00BF1FFABC
:1035200082FCDFF8C88108EB0018C8F800C000E092
:1035300038E04FEA124CDFF8B48108EB0018C8F805
:1035400008C03E2922D993F800C00CF01F0CBCF132
:10355000000F0CD04FEA611C4FF4004848EA8C2C55
:10356000DFF8888108EB0018C8F804C01AE04FF0B3
:10357000010CCCEB611C4FF4004848EA8C2CDFF8BE
:103580006C8108EB0018C8F804C00BE001F1010CD5
:103590002CF0010C4FEA4C2CDFF8508108EB00189E
:1035A000C8F804C03E2926D993F800C00CF01F0CBF
:1035B000BCF1000F0ED0B3F800C04FEA6C1C4FF402
:1035C000004848EA8C2CDFF8248108EB0018C8F882
:1035D0000CC01CE0B3F800C04FF00108C8EB6C1C35
:1035E0004FF4004848EA8C2CDFF8008108EB001803
:1035F000C8F80CC00BE001F1010C2CF0010C4FEAF3
:103600004C2CDFF8E88008EB0018C8F80CC0BCB9F7
:1036100000BFDFF8D49009EB8008D8F8008C4BF697
:103620008F7908EA090888F4005C4CF4004848F0F7
:103630008008DFF8B4A00AEB8009C9F8008C4FE0DD
:10364000012C4DD1DFF8A08008EB800CDCF800CC19
:103650000CF4C06CBCF5806F16D000BFC14609EBFE
:103660008008D8F8008C4BF68F7908EA090888F4AE
:10367000005C4CF4004848F08008DFF86CA00AEBCE
:103680008009C9F8008C15E000BFDFF85C9009EBF9
:103690008008D8F8008C4BF68F7908EA090C4CF4B6
:1036A000004848F08008DFF840A00AEB8009C9F81C
:1036B000008C00BF00BFDFF8309009EB8008D8F81D
:1036C000008C48F6BF7908EA090C4CF4004848F031
:1036D0008008DFF814A00AEB8009C9F8008C00BF4D
:1036E000BDE8F087C43C0008005000400060004086
:1036F00070B505460E4606F07F04F011E8B331467A
:10370000284600F0FFF810287CD100BF3E4901EBAD
:103710008400D0F8000C00F04000A0B100BF0A46C1
:1037200002EB8401D1F8001C48F68F72114041F081
:10373000400040F4004141F08001334B03EB840230
:10374000C2F8001C00BF00BF002105F1580000EBCB
:103750000410817000BF2C4A02EB8401D1F8001CD8
:1037600048F6BF72114081F0300040F4004141F052
:103770008001254B03EB840200E002E0C2F8001C4C
:1037800040E03146284600F0BDF8B0F5805F39D101
:1037900000BF1D4901EB8400D0F8000C00F480400C
:1037A000A0B100BF0A4602EB8401D1F8001C48F624
:1037B0008F72114041F4804040F4004141F080019B
:1037C000114B03EB8402C2F8001C00BF00BF0021B4
:1037D00005F1180000EB0410817000BF0A4A02EBEB
:1037E0008401D1F8001C4BF68F72114081F44050D7
:1037F00040F4004141F08001034B03EB8402C2F826
:10380000001C00BF70BD00000050004070B50246B3
:1038100001F07F00E8B900BF2A4C246848F6BF7564
:103820002C4084F0100343F4004444F08004254D00
:103830002C6000BF00BF2C4624684BF68F752C40CF
:1038400084F4805343F4004444F080041D4D2C6004
:1038500037E0CB11D3B1012402F1580303EB00137D
:103860009C7000BF184D05EB8004D4F8004C48F65E
:10387000BF752C4084F0100343F4004444F08004EE
:10388000114E06EB8005C5F8004C1AE0012402F148
:10389000180303EB00139C7000BF0B4D05EB800475
:1038A000D4F8004C4BF68F752C4084F4805343F4CD
:1038B000004444F08004044E06EB8005C5F8004C3B
:1038C00000BF70BD005C00400050004010B50346D2
:1038D0004806064C04EBD050D0F8002CC81110B1AB
:1038E00002F0300010BD02F44050FBE700500040F1
:1038F00070B504460D46D4F8D0002946026C204627
:10390000904770BD70B504460D46D4F8D0002946E6
:10391000026C2046904770BD70B504460D461646B1
:103920000820164908700120487040024880084667
:10393000446044F8C85F66601148A060C83C00213C
:1039400021751048C4F898000F499C2001510F4977
:10395000A0200151D4F8C8004068C079C0F380109D
:1039600020710121E171D4F8D01008688047D4F8A3
:10397000C810C968C868FEF77DFE70BD8C020020C3
:1039800094020020250A0008D909000867090008E8
:1039900010B50446A078E0700420A070E07930B142
:1039A00000BFD4F8D0100869804700BF01E00321B0
:1039B000A17110BD2DE9FC419F48006880B20190C3
:1039C0009D48006800F47F4000909B48001F0068FD
:1039D0001FFA80F8BDF8000000EA08000090974840
:1039E0004468BDF8000000F4004000287ED0A9E043
:1039F000BDF8040000F00F05BDF8040000F0100051
:103A0000002862D08E4901EB8500D0F8000C00F44C
:103A10000040002823D000BF0A4602EB8501D1F800
:103A2000001C40F68F7201EA020040F08001844BD6
:103A300003EB8502C2F8001C00BF194601EB8500AC
:103A4000D0F8000C00F4006060B14DB905EB450101
:103A500004F1980050F8212029462046904770E054
:103A6000BDE8FC8104F1180000EB05167068D4F87D
:103A7000D01000224B6B294698470746706838449F
:103A8000706070893844708170893189884202DAA7
:103A90003088B84212DD05EB450104F1980000EBD7
:103AA0008100406880B105EB450104F1980000EB0E
:103AB0008100294642682046904705E0D4F8D000AE
:103AC0002946826A204690473BE05D4901EB85002C
:103AD000D0F8000C00F0800098B300BF0A4602EB5B
:103AE0008501D1F8001C48F60F7200E033E001EACE
:103AF000020040F40041524B03EB8502C2F8001C67
:103B000000BF04F1580000EB0516308990B905EBB1
:103B1000450104F1980000EB8100806880B105EB5D
:103B2000450104F1980000EB810029468268204697
:103B3000904705E03389294620467268FFF7E2FA8C
:103B400000BF00BF3C48006880B2019000F4004014
:103B500000287FF44DAFBDF8000000F4805070B134
:103B60006FF4805034490860E078A070607A30B912
:103B700000BFD4F8D0104869804700BF00BFBDF82F
:103B8000000000F4006060B12B48001F006800F0E6
:103B9000100030B92046FFF7FBFE6FF400602649A5
:103BA0000860BDF8000000F4007058B16FF40070B8
:103BB000214908602348006820B122480068016854
:103BC00020468847BDF8000000F4807018B36FF4F9
:103BD000807019490860A079E8B1A079401EC1B28F
:103BE000A171C1B9607A50B11348001F006820F07C
:103BF00010001149091F0860002161720BE00E4896
:103C0000001F006840F010000B49091F08600321E5
:103C1000A17101216172BDF8000000F4806040B123
:103C20006FF4806004490860D4F8D000C169204670
:103C3000884700BF14E70000445C00408C0200206D
:103C400000500040440200200548006820F00400B5
:103C5000034908600846006820F0080008607047C3
:103C6000405C004005494968097A012905D10449A9
:103C7000096841F01001024A116070478C0200206F
:103C8000405C004070B505460C466078034951F829
:103C9000202021462846904770BD000048020020A1
:103CA0000348006840F00C000149086070470000BC
:103CB000405C0040024601207047000000C2010045
:103CC00000000800000200000004000000000000E6
:103CD00000060000F43C000800000020E0020000A4
:103CE00056020008243E0008E0020020A80A000056
:103CF0008004000811000C180E27070102030405B8
:103D00000607081312012302021640E9288A011A45
:103D1000012E150109024313020125803209041BFB
:103D200001020B1305241D10010524201008042492
:103D30000202052406170107058203081C0A09046C
:103D40003F320A2E0705030240072A8107100804A4
:103D500003090416034712691267126112441265BF
:103D60001A760C1A6308016C1A1A82124412331262
:103D700032122D1A430A1243125F1A41060A694D84
:103D800082018122791B207D041AFF041381011B0B
:103D90002024081A3604413B04021811138D1D1B00
:103DA00008690413151E420813DF1C1B0801101AB2
:103DB00037044113F90C1408DF0A1408B10D4C083C
:103DC0008F0E081AB70413A90B1B0889101A6D0867
:103DD0001AE5101AB928131D0F1B085D04135309A7
:103DE0001B0833041A630CC113AD2A1B08D5041A2F
:103DF000ED041A790413A13C1B0849041A65041B3D
:103E000019301812311408E12E1B08CD0C1BB12BF0
:103E100014122C1B081108130D381C08F136181940
:043E20000881000015
:0400000508000131BD
:00000001FF
