:020000040800F2
:1000000010040020490100084102000839020008DC
:100010003D02000833020008C10300080000000090
:100020000000000000000000000000006F02000857
:1000300037020008000000006D020008710200088D
:100040006301000863010008630100086301000800
:1000500063010008630100086301000863010008F0
:1000600063010008630100086301000863010008E0
:1000700063010008630100086301000863010008D0
:1000800063010008630100086301000863010008C0
:1000900063010008630100086301000863010008B0
:1000A00063010008630100086301000863010008A0
:1000B0006301000863010008630100086301000890
:1000C0006301000863010008630100086301000880
:1000D0006301000863010008630100086301000870
:1000E0006301000863010008630100086301000860
:1000F0006301000863010008630100086301000850
:10010000630100086301000863010008630100083F
:10011000630100086301000863010008630100082F
:10012000630100086301000863010008630100081F
:10013000DFF810D000F04CF800480047111200081A
:10014000AFF30080100400200648804706480047AF
:10015000FEE7FEE7FEE7FEE7FEE7FEE7FEE7FEE777
:10016000FEE7FEE779020008310100082DE9F05FA3
:100170000546002092469B46884606468146402416
:100180001BE0284641464746224600F042F85346C7
:100190005A46C01A914110D311461846224600F023
:1001A00029F82D1A67EB01084F462246012000214D
:1001B00000F020F817EB00094E41201EA4F10104C5
:1001C000DFDC484631462A464346BDE8F09F000042
:1001D000064C074D06E0E06840F0010394E8070094
:1001E00098471034AC42F6D3FFF7A6FFB8190008C1
:1001F000D8190008202A04DB203A00FA02F1002076
:1002000070479140C2F1200320FA03F31943904054
:100210007047202A04DB203A21FA02F000217047BF
:1002200021FA02F3D040C2F120029140084319465E
:10023000704700BFFEE7704700BFFEE700BFFEE764
:100240007047000010B5002807DA0A07140E054AA7
:1002500000F00F031B1FD45403E00A07130E024AD9
:10026000135410BD18ED00E000E400E07047704743
:1002700010B500F0D7FE10BD1CB54E48006840F424
:1002800070004C4908604C48006840F001004A4941
:10029000086000BF4848006800F002000028F9D05C
:1002A0004548406800F00C00082866D100BF0020D7
:1002B000019002E00198401C019001985028F9D368
:1002C0003D4840680090009820F0F00000900098B1
:1002D00040F080000090384900984860002001906C
:1002E00002E00198401C019001985028F9D332484F
:1002F00040680090009820F0F0000090009840F0D6
:10030000900000902C49009848600020019002E085
:100310000198401C019001985028F9D32648406864
:100320000090009820F0F0000090009840F0A000AD
:1003300000902149009848600020019002E0019857
:10034000401C019001985028F9D31B484068009048
:10035000009820F0F0000090009840F0B00000906D
:100360001549009848600020019002E00198401C67
:10037000019001985028F9D300BF0F48406820F041
:1003800003000D494860C82000F087FA0A48006859
:100390000A490840084908604FF41F008860084671
:1003A000006820F48020086000204860C86201F0E6
:1003B000DBF91CBD88ED00E000100240FFFFF6FEF7
:1003C00000BFFEE710B506A000F01CF8002001F009
:1003D000E1FAC82000F01CFE012001F0DBFA10BD9C
:1003E0005B5553425D20526573657474696E672076
:1003F0005553422044502070756C6C2D75702E2E14
:100400002E0D0A000FB4054B10B503A9044A02983B
:1004100000F018F810BC5DF814FB00003D10000857
:100420000800002002E008C8121F08C1002AFAD103
:1004300070477047002001E001C1121F002AFBD164
:10044000704700002DE9FF4F8DB00F46054600268E
:1004500006E025280BD0DDE90F1290476D1C761CB5
:1004600028780028F5D111B03046BDE8F08F00247F
:10047000A246A1460122E94900E0044315F8013FE4
:10048000203B02FA03F00842F7D128782A2810D03E
:100490006FF02F022878A0F13001092914D80AEB57
:1004A0008A0102EB410144F0020400EB010A6D1CD9
:1004B000F0E701CF5FEA000A03D544F40054CAF123
:1004C000000A44F002046D1C28782E2817D115F874
:1004D000010F44F004042A280ED06FF02F02287870
:1004E000A0F1300109290AD809EB890102EB410189
:1004F00000EB01096D1CF2E757F8049B6D1C28788E
:100500006C280FD006DC4C2817D068280DD06A283C
:1005100014D104E0742810D07A280FD10DE044F4EF
:1005200000140AE044F4801401E044F440146978B3
:10053000814202D104F580146D1C6D1C28786E2850
:100540001ED00CDC632830D004DC00288BD0582867
:1005500011D19FE0642867D069280CD164E073282A
:100560002DD004DC6F2872D0702804D194E0752857
:100570006ED078286DD0DDE90F129047761C4BE1E4
:10058000C4F30250022806D0032809D0042801CF62
:1005900009D0066040E101CFF117C0E900613BE1FD
:1005A00001CF068038E1067036E117F8040B8DF8AC
:1005B000000000208DF80100EB46012003E057F811
:1005C00004BB4FF0FF3061074FF0000102D40DE093
:1005D00008F10101884649450FDA8045F8DB1BF830
:1005E00008100029F4D108E008F101018846814291
:1005F000FADB1BF808100029F6D1DDE90F23AAEB7E
:1006000008008146214600F031F9304400EB08062D
:1006100004E0DDE90F121BF8010B9047B8F1010867
:10062000F7D221464846F2E00A21C4F302524FF0C5
:10063000000B0891022A04D001CFC117032A09D068
:100640000AE0FF1D27F00707F7E8020108E02CE0A9
:100650001EE01FE000B2C117042A01D140B2C11749
:10066000021E71F1000206DA0023D0EB030063EBF7
:1006700001012D2202E0220504D52B228DF8242031
:10068000012203E0E20701D02022F7E7904653E081
:100690000A210BE0102109E010214FF0000B44F07B
:1006A00004044FF00809089103E008214FF0000B03
:1006B0000891C4F30252022A04D001CF0021032A78
:1006C00006D006E0FF1D27F00707F7E8020103E068
:1006D00080B2042A00D1C0B24FF0000822072BD507
:1006E0002A78702A07D0DDF820C08CF0100C5CEA64
:1006F0000B0C05D00EE040228DF82420012208E0EA
:1007000050EA010306D030238DF824308DF82520DF
:1007100002229046089B83F0080353EA0B030BD197
:1007200050EA010201D1620706D530228DF824205B
:100730004FF00108A9F101092A78582A04D038A2FB
:100740000B9208AA0A920BE03AA2F9E75B46089AD4
:10075000FFF70CFD0B9B9B5C0A9A521E0A921370CA
:1007600050EA0102F2D10A98ADEB000000F1200B33
:10077000600702D524F4803401E04FF00109D94527
:1007800002DDA9EB0B0000E0002000EB0B0141446F
:100790000890AAEB010AE00306D4DDE90F23214605
:1007A000504600F063F806444FF0000908E009A93C
:1007B00011F80900DDE90F12904709F10109761CD3
:1007C000C145F4DBE0030CD5DDE90F23214650469B
:1007D00000F04CF8064404E0DDE90F1230209047A9
:1007E000761C0899481E08900029F5DC08E00A9854
:1007F0000A990078491C0A91DDE90F129047761C8E
:10080000BBF10001ABF1010BF1DC21465046DDE903
:100810000F2300F019F806446D1C21E60928010099
:100820003031323334353637383961626364656666
:100830000000000030313233343536373839414228
:1008400043444546000000002DE9F04104460025E0
:100850001E461746880404D405E039462020B047D8
:100860006D1C641EF9D52846BDE8F0812DE9F041E4
:10087000044600251E469046C80301D5302700E0F7
:100880002027880404D505E041463846B0476D1C52
:10089000641EF9D52846BDE8F08108B50021009115
:1008A00002E00099491C009100EB8001009AB2EB34
:1008B000410FF6D308BD000000B589B040F20360D7
:1008C00000F088FE4FF4C06000F084FE40F2197022
:1008D00000F080FE01214FF4EA1000F031FC4FF4EB
:1008E000007303221821284800F0C3FB4FF48073E3
:1008F00003224821244800F0BCFB244800F0E0F823
:1009000006A9002000F031FB00208DF81C0001201A
:100910008DF81D008DF81E008DF81F0000208DF849
:1009200020008DF821008DF818000620ADF8220077
:1009300000208DF8190006208DF81A0001208DF88E
:100940001B0006A9114800F053F901A9012000F08D
:100950000CFB0020ADF80E00ADF810000120ADF842
:1009600012000020ADF80400ADF80600ADF8080054
:10097000ADF80A00ADF80C0001208DF8140001A8B4
:1009800000F0AEF809B000BD000C0140006400406A
:1009900010B540F2026000F01DFE3023032210214A
:1009A0000B4800F066FB1021094800F05BFB20219A
:1009B000074800F057FB4FF48063032210210448DE
:1009C00000F057FB4FF48061014800F049FB10BD77
:1009D0000008014010B5044640F2026000F0FAFD44
:1009E00040F2117000F0F6FD04230322182118488C
:1009F00000F03FFB082303220421154800F039FBD7
:100A0000144800F029FF2146124800F0D9FE0021C9
:100A1000104800F0B6FF00210E4800F0A0FF0021B2
:100A20000C4800F08AFF00210A4800F07CFF0021FA
:100A3000084800F06EFF0421064800F086FF0821F8
:100A4000044800F094FF034800F04EFF10BD000082
:100A5000000801400044004010B50446002107484A
:100A600000F076FA002806DD22460021034800F057
:100A700050F9012010BD0020FCE700000064004098
:100A8000F0B585B006460F46154600960020019049
:100A90008DF808008DF809008DF80A50002405E053
:100AA000395D0DF10B000155601CC4B2AC42F7DB9F
:100AB0006946024800F0A0F905B0F0BD00640040AE
:100AC00010B504460548844207D140F2194000F0B1
:100AD000A1FD40F2194000F08DFD10BD0064004002
:100AE00010B50021837A012202FA03F13E4A12680E
:100AF00042F001023C4B1A603B4A1C3212688A43A6
:100B0000394B1C331A60C289DAB9374A0C32126881
:100B10008A43354B0C331A60C288344B03EA0242D5
:100B200043881A434389304C403444F83320828848
:100B30002E4B03EA024203881A43438904EBC303A2
:100B40005A60C289012A1BD1274A0C3212680A4313
:100B5000254B0C331A600288244B03EA0242438877
:100B60001A434389204C403444F8332082881F4B79
:100B700003EA0242C3881A43438904EBC3035A6061
:100B800082893AB9184A121D12688A43164B1B1DF6
:100B90001A6006E0144A121D12680A43124B1B1D0C
:100BA0001A6002893AB9104A143212688A430E4B0D
:100BB00014331A6006E00C4A143212680A430A4BD6
:100BC00014331A60027C012A06D1074A1C321268CB
:100BD0000A43054B1C331A60034A126822F00102D3
:100BE000014B1A6010BD0000006600400000FFFFCE
:100BF00070B502464FF6FF730020146824F002041B
:100C00001460146844F00104146000E05B1E546832
:100C100004F001040CB9002BF8D1546804F001046D
:100C20000CB9002074E00C784FF0404505EA84745C
:100C30004D784FF0407606EA05652C438D784FF4E9
:100C4000702606EA05452C43CD784FF4E00606EA07
:100C500005552C434D896D1EC5F309052C43D46100
:100C60000C79012C04D1146844F08004146003E072
:100C7000146824F0800414604C79012C04D11468A9
:100C800044F04004146003E0146824F0400414604D
:100C90008C79012C04D1146844F02004146003E022
:100CA000146824F020041460CC79012C04D1146859
:100CB00024F01004146003E0146844F0100414607D
:100CC0000C7A012C04D1146824F00804146003E0A9
:100CD000146844F0080414604C7A012C04D11468A0
:100CE00044F00404146003E0146824F00404146065
:100CF000146824F0010414604FF6FF7300E05B1EDB
:100D0000546804F001040CB1002BF8D103B10120A8
:100D100070BD10B500F5D87303EB01131B6803F029
:100D200004031372137A3BB900F5D87303EB011374
:100D30001B685B0D136006E000F5D87303EB01132D
:100D40001B68DB08536000F5D87303EB01131B68C5
:100D500003F00203537200F5DA7303EB01131B680F
:100D60001B0AD37400F5DA7303EB01131B6803F05D
:100D70000F03937200F5DC7303EB01131B68D3724E
:100D800000F5DC7303EB01131B681C0A147300F5F8
:100D9000DC7303EB01131B681C0C547300F5DC734C
:100DA00003EB01131B681C0E947300F5DE7303EB59
:100DB00001131B68D37300F5DE7303EB01131B688B
:100DC0001C0A147400F5DE7303EB01131B681C0C82
:100DD000547400F5DE7303EB01131B681C0E94744E
:100DE00021B9C36843F02003C36003E0036943F003
:100DF0002003036110BD000030B502460020936857
:100E000003F08063B3F1806F00D110E0936803F0CA
:100E10000063B3F1006F01D1012008E0936803F093
:100E20008053B3F1805F01D1022000E0032003284A
:100E30007DD002F5C07303EB00131B6803F00104BF
:100E400002F5C07303EB00131C600B7A8BB90B889F
:100E50003E4C04EA43534C7A234302F5C07404EB3E
:100E600000142468234302F5C07404EB00142360CB
:100E700013E06FF007044B6804EAC3030C7A2343C2
:100E80004C7A234302F5C07404EB00142468234316
:100E900002F5C07404EB0014236002F5C27303EB87
:100EA00000131B6823F00F0402F5C27303EB001359
:100EB0001C608B7A082B01D908238B7202F5C27350
:100EC00003EB00131B688C7A234302F5C27404EB16
:100ED000001423608B7B4FF07F4404EA03634C7B58
:100EE0004FF47F0505EA044423430C7B2D1205EAE9
:100EF00004242343CC7A234302F5C47404EB001486
:100F000023608B7C2C0404EA03634C7C2D0205EAED
:100F1000044423430C7C2D1205EA04242343CC7B98
:100F2000234302F5C67404EB0014236000E00BE0D9
:100F300002F5C07303EB00131B6843F0010402F5D4
:100F4000C07303EB00131C6030BD00000000E0FF25
:100F50000246002019B9D36803F0030004E0012918
:100F600002D1136903F00300704710B5024609B9B6
:100F700000BFFEE732B1012A16D0022A20D0032A90
:100F800041D12EE000234B71CB718B7140F2FF33C6
:100F90004B8100230B724B7002238B700023CB70AC
:100FA0000B714B720B7030E00123CB8100230B746B
:100FB0000B810B804B808B80CB808B814B8124E01D
:100FC000002005E0002401F10B031C54431CD8B29F
:100FD0000828F7D300238B724B600B724B720B60A7
:100FE00013E0002005E0002401F10B031C54431C16
:100FF000D8B20828F7D300238B724B600B72CB74E6
:101000004B720B6001E000BFFEE700BF10BD0000A7
:101010000349086000BF024909680029FBD17047F5
:10102000000000200448006820B103480068401E0A
:1010300001490860704700000000002070B50446B8
:101040000D46E1B2054800F003FC00BF072103484C
:1010500000F04FFC0028F9D0204670BD004400404D
:1010600041617047016170470AB1016100E041616F
:101070007047F0B5044616460025002201F00F0522
:1010800001F0100747B1042E05D145F00305E76BC9
:101090001F43E76300E0354300201EE0012787403F
:1010A0001F40C7B122684FEA800C0F2707FA0CF7E0
:1010B000BA43870005FA07F73A43282904D10127E4
:1010C00087401F40676105E0482903D10127874019
:1010D0001F4027612260471CB8B20828DED30820D1
:1010E00022E0012787401F40E7B16268A0F10807AE
:1010F0004FEA870C0F2707FA0CF7BA43A0F108074D
:10110000BF0005FA07F73A43282904D10127874091
:101110001F40676105E0482903D1012787401F4030
:1011200027616260471CB8B21028DAD3F0BD0246CE
:10113000D3680B400BB1012000E000207047000095
:10114000F0B50A46002300240021002500F00046E7
:10115000B6F1004F02D11D4EF16901E01B4E7168DE
:10116000C0F3034583B200F44016B6F5401F08D122
:1011700021F0E061154E766826F0E066134F7E6040
:1011800012E000F48016B6F5801F06D1032606FA99
:1011900005F4A14341F0E06106E0460D360103FA93
:1011A00006F6B14341F0E06122B1460D360103FA83
:1011B00006F6314300F00046B6F1004F02D1034E6F
:1011C000F16101E0014E7160F0BD000000000140DE
:1011D00010B510210548FFF7AAFFC0F10100C4B205
:1011E000224610210148FFF73FFF10BD00080140D3
:1011F00010B520210548FFF79AFFC0F10100C4B2E5
:10120000224620210148FFF72FFF10BD00080140B2
:1012100088B039A103C9CDE90101002500244FF4AC
:10122000000000F007FA40F2177000F0D3F900F068
:101230009FFAFFF7ADFB4FF4E130FFF7CBFBFFF771
:101240003BFB2FA0FFF7DEF83BA0FFF7DBF8002009
:1012500000F014F90646314641A0FFF7D3F801200B
:1012600000F00CF90646314647A0FFF7CBF8022004
:1012700000F004F9064631464DA0FFF7C3F80320FD
:1012800000F0FCF80646314653A0FFF7BBF85CA01F
:10129000FFF7B8F8FFF796F82CE0B5F57A7F0AD398
:1012A0000025FFF795FF082201A99001FFF7E8FB51
:1012B00061A0FFF7A7F803A8FFF7CEFBB0B1FFF7D7
:1012C00097FF64A00399FFF79DF8002407E00DF154
:1012D0001700015D66A0FFF795F8601CC4B29DF889
:1012E0001600A042F3DC64A0FFF78CF80A20FFF799
:1012F0008FFE0A35D1E70000010203040506070846
:101300000D0A3D3D3D3D3D3D3D3D3D3D3D3D3D3D70
:101310003D3D3D3D3D3D3D3D3D3D3D3D3D3D3D3DFD
:101320003D3D3D3D3D3D3D3D3D3D3D3D3D3D3D3DED
:101330003D3D3D3D3D0000000D0A20202047443347
:10134000324633303343425436205553422D4341C5
:101350004E20426F617264204F6E6C696E65210091
:101360000D0A202020434B5F5359532020697320DE
:10137000256420487A20285461726765743A2031C8
:1013800032304D487A2900000D0A202020434B5F5F
:101390004148422020697320256420487A2028543F
:1013A00061726765743A203132304D487A29000005
:1013B0000D0A202020434B5F4150423120697320A9
:1013C000256420487A20285461726765743A202089
:1013D00036304D487A2900000D0A202020434B5F0B
:1013E0004150423220697320256420487A202854D5
:1013F00061726765743A203132304D487A290000B5
:101400000D0A3D3D3D3D3D3D3D3D3D3D3D3D3D3D6F
:101410003D3D3D3D3D3D3D3D3D3D3D3D3D3D3D3DFC
:101420003D3D3D3D3D3D3D3D3D3D3D3D3D3D3D3DEC
:101430003D3D3D3D3D0D0A005B43414E2054585D0E
:101440002053656E742049443A2030783230300D94
:101450000A0000005B43414E2052585D2049443A47
:101460003078253033582C20446174613A200000D4
:1014700025303258200000000D0A00002DE9F04F01
:101480008CB0074600200A904AA090E8004CC06843
:10149000CDE905BECDF810A007900FF21C1ADAE9CD
:1014A000000ACDE9020A0FF2101ADAE9000ACDE9C2
:1014B000000A44484068C0F381000B900B9820B1AB
:1014C000012804D002283FD103E03F4A3EE03E4AD3
:1014D0003CE03C48406800F4803CBCF5803F12D1C1
:1014E0003848C06A00F08048B8F1000F01D1364B8F
:1014F00000E0364B3348406800F40039B9F5003F4E
:1015000002D15B0800E0324B2E484068C0F38341B3
:101510002C48406800F0006008B141F010012948F3
:10152000406800F0804008B141F020010F2901D24D
:10153000891C06E00F2903D33E2901D8491C00E08D
:101540003F2103FB01F201E01F4A00BF00BF1D481D
:101550004068C0F3031504A8465D22FA06F4194852
:101560004068C0F3022502A8465D24FA06F00990FF
:1015700014484068C0F3C2251DF8056024FA06F03F
:10158000089037B1012F06D0022F06D0032F0AD1C1
:1015900006E00A9208E00A9406E009980A9003E03F
:1015A00008980A9000E000BF00BF0A980CB0BDE8A0
:1015B000F08F0000000000000000000001020304A2
:1015C000060708090010024000127A00006CDC02D5
:1015D00000093D00064A02EB9011096800F01F0364
:1015E00001229A401143024B03EB901211607047A5
:1015F00000100240064A02EB9011096800F01F0338
:1016000001229A409143024B03EB90121160704704
:1016100000100240064A02EB9011096800F01F0317
:1016200001229A401143024B03EB90121160704764
:1016300000100240044A516821F4400141EA0002CE
:10164000014B5A60704700000010024008B50020AE
:101650000021414A126842F480323F4B1A6000BFB9
:10166000401C3D4A126802F4003119B94FF6FF726E
:101670009042F5D1384A126802F400320AB900BF2C
:10168000FEE7354AD26942F08052334BDA61334A81
:10169000126842F44042314B1A602F4A52682E4B76
:1016A0005A601A4652685A601A46526842F480627A
:1016B0005A601A46526822F440325A601A465268FA
:1016C00042F440325A601A465268254B1A40224B67
:1016D0005A601A465268234B1A431F4B5A601A46E7
:1016E000126842F080721A6000BF1B4A126802F052
:1016F0000072002AF9D0194A126842F48032174B5E
:101700001A6000BF154A526802F48032002AF9D0EC
:10171000124A126842F40032104B1A6000BF0F4A9E
:10172000526802F40032002AF9D00B4A5268009243
:10173000009A22F003020092009A42F00202009204
:10174000054B009A5A6000BF034A526802F0080233
:10175000002AF9D008BD00000010024000700040CF
:10176000FFFFC3B70000340810B5FFF76FFF10BDCF
:1017700010B5124800684FF47A71B0FBF1F4601EA6
:10178000B0F1807F01D301200FE0601E4FF0E02117
:1017900048610F214FF0FF30FEF754FD00204FF05D
:1017A000E021886107200861002008B100BFFEE742
:1017B0000021481EFEF746FD10BD00000400002079
:1017C0002DE9F04704460D460027B846B9460026E5
:1017D0001D49601A8C421CD006DC1C48204470B1A4
:1017E000B0F5806F1FD10FE0B0F5806F16D0B0F567
:1017F0006C4F18D10320FFF741FE074614E002208A
:10180000FFF73CFE07460FE00220FFF737FE0746D2
:101810000AE00220FFF732FE074605E00220FFF74C
:101820002DFE074600E000BF00BF07EB5500B0FBF0
:10183000F5F64FF6F07006EA000806F00F0948EAE0
:101840000900A060BDE8F087004C004000BCFFBF6D
:10185000C1F308024260704710B504462049601A7F
:101860008C4228D006DC1F48204490B1B0F5806F30
:1018700033D117E0B0F5806F26D0B0F56C4F2CD186
:1018800040F20E30FFF7C6FE40F20E30FFF7B2FE18
:1018900024E040F21140FFF7BDFE40F21140FFF797
:1018A000A9FE1BE040F21240FFF7B4FE40F21240E6
:1018B000FFF7A0FE12E040F21340FFF7ABFE40F24C
:1018C0001340FFF797FE09E040F21440FFF7A2FE35
:1018D00040F21440FFF78EFE00E000BF00BF10BDD5
:1018E000004C004000BCFFBFC16841F40051C16022
:1018F000704730B50246002002EB91131B6801F0DF
:101900001F050124AC4023400BB1012000E0002062
:1019100030BD426922F400724261426901F40073F1
:101920001A4342617047426922F4807242614269FF
:1019300001F480731A4342617047C26822F4C062A6
:10194000C260C2680A43C2607047C26822F00402E3
:10195000C260C26801F004031A43C26070470269A2
:1019600022F44052026102690A4302617047C26870
:1019700022F00802C260C26801F008031A43C26084
:101980007047C26822F48052C260C2680A43C260D3
:101990007047000010B504462CB14FF48061054833
:1019A000FFF760FB04E04FF480610248FFF758FB4B
:1019B00010BD000000080140D819000800000020F8
:1019C0000C00000024040008E41900080C000020AA
:1019D000040400003404000800000000000E270783
:0419E0000000000003
:0400000508000131BD
:00000001FF
